{
  "_format": "hh-sol-artifact-1",
  "contractName": "RockPaperScissors",
  "sourceName": "contracts/RPS.sol",
  "abi": [
    {
      "inputs": [],
      "stateMutability": "nonpayable",
      "type": "constructor"
    },
    {
      "anonymous": false,
      "inputs": [
        {
          "indexed": true,
          "internalType": "uint256",
          "name": "gameId",
          "type": "uint256"
        },
        {
          "indexed": true,
          "internalType": "address",
          "name": "winner",
          "type": "address"
        },
        {
          "indexed": false,
          "internalType": "uint256",
          "name": "pot",
          "type": "uint256"
        }
      ],
      "name": "GameCompleted",
      "type": "event"
    },
    {
      "anonymous": false,
      "inputs": [
        {
          "indexed": true,
          "internalType": "uint256",
          "name": "gameId",
          "type": "uint256"
        },
        {
          "indexed": false,
          "internalType": "uint256",
          "name": "betAmount",
          "type": "uint256"
        }
      ],
      "name": "GameCreated",
      "type": "event"
    },
    {
      "anonymous": false,
      "inputs": [
        {
          "indexed": true,
          "internalType": "uint256",
          "name": "gameId",
          "type": "uint256"
        },
        {
          "indexed": true,
          "internalType": "address",
          "name": "player",
          "type": "address"
        },
        {
          "indexed": false,
          "internalType": "enum RockPaperScissors.Move",
          "name": "move",
          "type": "uint8"
        }
      ],
      "name": "MoveRevealed",
      "type": "event"
    },
    {
      "anonymous": false,
      "inputs": [
        {
          "indexed": true,
          "internalType": "uint256",
          "name": "gameId",
          "type": "uint256"
        },
        {
          "indexed": true,
          "internalType": "address",
          "name": "player",
          "type": "address"
        }
      ],
      "name": "MovesCommitted",
      "type": "event"
    },
    {
      "anonymous": false,
      "inputs": [
        {
          "indexed": true,
          "internalType": "uint256",
          "name": "gameId",
          "type": "uint256"
        },
        {
          "indexed": true,
          "internalType": "address",
          "name": "player",
          "type": "address"
        }
      ],
      "name": "PlayerJoined",
      "type": "event"
    },
    {
      "inputs": [
        {
          "internalType": "uint256",
          "name": "gameId",
          "type": "uint256"
        },
        {
          "internalType": "bytes32",
          "name": "hashedMove",
          "type": "bytes32"
        }
      ],
      "name": "commitMove",
      "outputs": [],
      "stateMutability": "nonpayable",
      "type": "function"
    },
    {
      "inputs": [],
      "name": "createGame",
      "outputs": [
        {
          "internalType": "uint256",
          "name": "",
          "type": "uint256"
        }
      ],
      "stateMutability": "nonpayable",
      "type": "function"
    },
    {
      "inputs": [],
      "name": "gameCounter",
      "outputs": [
        {
          "internalType": "uint256",
          "name": "",
          "type": "uint256"
        }
      ],
      "stateMutability": "view",
      "type": "function"
    },
    {
      "inputs": [
        {
          "internalType": "uint256",
          "name": "",
          "type": "uint256"
        }
      ],
      "name": "games",
      "outputs": [
        {
          "components": [
            {
              "internalType": "address payable",
              "name": "addr",
              "type": "address"
            },
            {
              "internalType": "bytes32",
              "name": "hashedMove",
              "type": "bytes32"
            },
            {
              "internalType": "enum RockPaperScissors.Move",
              "name": "revealedMove",
              "type": "uint8"
            },
            {
              "internalType": "uint256",
              "name": "joinTime",
              "type": "uint256"
            }
          ],
          "internalType": "struct RockPaperScissors.Player",
          "name": "player1",
          "type": "tuple"
        },
        {
          "components": [
            {
              "internalType": "address payable",
              "name": "addr",
              "type": "address"
            },
            {
              "internalType": "bytes32",
              "name": "hashedMove",
              "type": "bytes32"
            },
            {
              "internalType": "enum RockPaperScissors.Move",
              "name": "revealedMove",
              "type": "uint8"
            },
            {
              "internalType": "uint256",
              "name": "joinTime",
              "type": "uint256"
            }
          ],
          "internalType": "struct RockPaperScissors.Player",
          "name": "player2",
          "type": "tuple"
        },
        {
          "internalType": "uint256",
          "name": "pot",
          "type": "uint256"
        },
        {
          "internalType": "enum RockPaperScissors.GameStatus",
          "name": "status",
          "type": "uint8"
        }
      ],
      "stateMutability": "view",
      "type": "function"
    },
    {
      "inputs": [
        {
          "internalType": "uint256",
          "name": "gameId",
          "type": "uint256"
        }
      ],
      "name": "getPlayerCount",
      "outputs": [
        {
          "internalType": "uint256",
          "name": "",
          "type": "uint256"
        }
      ],
      "stateMutability": "view",
      "type": "function"
    },
    {
      "inputs": [
        {
          "internalType": "uint256",
          "name": "gameId",
          "type": "uint256"
        }
      ],
      "name": "joinGame",
      "outputs": [],
      "stateMutability": "nonpayable",
      "type": "function"
    },
    {
      "inputs": [],
      "name": "owner",
      "outputs": [
        {
          "internalType": "address",
          "name": "",
          "type": "address"
        }
      ],
      "stateMutability": "view",
      "type": "function"
    },
    {
      "inputs": [
        {
          "internalType": "uint256",
          "name": "gameId",
          "type": "uint256"
        },
        {
          "internalType": "enum RockPaperScissors.Move",
          "name": "move",
          "type": "uint8"
        },
        {
          "internalType": "string",
          "name": "secret",
          "type": "string"
        }
      ],
      "name": "revealMove",
      "outputs": [],
      "stateMutability": "nonpayable",
      "type": "function"
    }
  ],
  "bytecode": "0x608060405234801561001057600080fd5b50336000806101000a81548173ffffffffffffffffffffffffffffffffffffffff021916908373ffffffffffffffffffffffffffffffffffffffff160217905550612266806100606000396000f3fe608060405234801561001057600080fd5b50600436106100885760003560e01c80638da5cb5b1161005b5780638da5cb5b14610118578063ab1205e914610136578063bd675c0e14610166578063efaa55a01461018257610088565b8063117a5b901461008d57806326826f62146100c05780632e0be39a146100dc5780637255d729146100fa575b600080fd5b6100a760048036038101906100a291906115f2565b61019e565b6040516100b794939291906117ab565b60405180910390f35b6100da60048036038101906100d5919061181f565b610339565b005b6100e461057e565b6040516100f1919061185f565b60405180910390f35b610102610584565b60405161010f919061185f565b60405180910390f35b610120610632565b60405161012d919061189b565b60405180910390f35b610150600480360381019061014b91906115f2565b610656565b60405161015d919061185f565b60405180910390f35b610180600480360381019061017b9190611a21565b61074d565b005b61019c600480360381019061019791906115f2565b610ba7565b005b6001602052806000526040600020600091509050806000016040518060800160405290816000820160009054906101000a900473ffffffffffffffffffffffffffffffffffffffff1673ffffffffffffffffffffffffffffffffffffffff1673ffffffffffffffffffffffffffffffffffffffff168152602001600182015481526020016002820160009054906101000a900460ff16600381111561024657610245611679565b5b600381111561025857610257611679565b5b815260200160038201548152505090806004016040518060800160405290816000820160009054906101000a900473ffffffffffffffffffffffffffffffffffffffff1673ffffffffffffffffffffffffffffffffffffffff1673ffffffffffffffffffffffffffffffffffffffff168152602001600182015481526020016002820160009054906101000a900460ff1660038111156102fb576102fa611679565b5b600381111561030d5761030c611679565b5b8152602001600382015481525050908060080154908060090160009054906101000a900460ff16905084565b60006001600084815260200190815260200160002090506001600281111561036457610363611679565b5b8160090160009054906101000a900460ff16600281111561038857610387611679565b5b146103c8576040517f08c379a00000000000000000000000000000000000000000000000000000000081526004016103bf90611aed565b60405180910390fd5b8060000160000160009054906101000a900473ffffffffffffffffffffffffffffffffffffffff1673ffffffffffffffffffffffffffffffffffffffff163373ffffffffffffffffffffffffffffffffffffffff16148061047b57508060040160000160009054906101000a900473ffffffffffffffffffffffffffffffffffffffff1673ffffffffffffffffffffffffffffffffffffffff163373ffffffffffffffffffffffffffffffffffffffff16145b6104ba576040517f08c379a00000000000000000000000000000000000000000000000000000000081526004016104b190611b7f565b60405180910390fd5b60008160000160000160009054906101000a900473ffffffffffffffffffffffffffffffffffffffff1673ffffffffffffffffffffffffffffffffffffffff163373ffffffffffffffffffffffffffffffffffffffff161461051f5781600401610524565b816000015b90506000801b81600101541461056f576040517f08c379a000000000000000000000000000000000000000000000000000000000815260040161056690611beb565b60405180910390fd5b82816001018190555050505050565b60025481565b60006002600081548092919061059990611c3a565b9190505550600060016000600254815260200190815260200160002090506000816008018190555060008160090160006101000a81548160ff021916908360028111156105e9576105e8611679565b5b02179055506002547fa26856d25e558c79e1632806bc6824075cf59885a115825f2aab62385a3f714260006040516106219190611cc7565b60405180910390a260025491505090565b60008054906101000a900473ffffffffffffffffffffffffffffffffffffffff1681565b60008060016000848152602001908152602001600020905060008073ffffffffffffffffffffffffffffffffffffffff168260000160000160009054906101000a900473ffffffffffffffffffffffffffffffffffffffff1673ffffffffffffffffffffffffffffffffffffffff16146106d95780806106d590611c3a565b9150505b600073ffffffffffffffffffffffffffffffffffffffff168260040160000160009054906101000a900473ffffffffffffffffffffffffffffffffffffffff1673ffffffffffffffffffffffffffffffffffffffff161461074357808061073f90611c3a565b9150505b8092505050919050565b60006001600085815260200190815260200160002090506001600281111561077857610777611679565b5b8160090160009054906101000a900460ff16600281111561079c5761079b611679565b5b146107dc576040517f08c379a00000000000000000000000000000000000000000000000000000000081526004016107d390611d2e565b60405180910390fd5b8060000160000160009054906101000a900473ffffffffffffffffffffffffffffffffffffffff1673ffffffffffffffffffffffffffffffffffffffff163373ffffffffffffffffffffffffffffffffffffffff16148061088f57508060040160000160009054906101000a900473ffffffffffffffffffffffffffffffffffffffff1673ffffffffffffffffffffffffffffffffffffffff163373ffffffffffffffffffffffffffffffffffffffff16145b6108ce576040517f08c379a00000000000000000000000000000000000000000000000000000000081526004016108c590611dc0565b60405180910390fd5b60008160000160000160009054906101000a900473ffffffffffffffffffffffffffffffffffffffff1673ffffffffffffffffffffffffffffffffffffffff163373ffffffffffffffffffffffffffffffffffffffff16146109335781600401610938565b816000015b90506000600381111561094e5761094d611679565b5b8160020160009054906101000a900460ff16600381111561097257610971611679565b5b146109b2576040517f08c379a00000000000000000000000000000000000000000000000000000000081526004016109a990611e2c565b60405180910390fd5b600084846040516020016109c7929190611ec9565b604051602081830303815290604052805190602001209050600a82600301546109f09190611ef9565b42118015610a0457506000801b8260010154145b15610a3b5760018260020160006101000a81548160ff02191690836003811115610a3157610a30611679565b5b0217905550610aae565b81600101548114610a81576040517f08c379a0000000000000000000000000000000000000000000000000000000008152600401610a7890611f79565b60405180910390fd5b848260020160006101000a81548160ff02191690836003811115610aa857610aa7611679565b5b02179055505b3373ffffffffffffffffffffffffffffffffffffffff16867fdd17665bf97c2a169e97f4f62f36023bf40807eb797a922864394a910d5c37c88460020160009054906101000a900460ff16604051610b069190611f99565b60405180910390a360006003811115610b2257610b21611679565b5b8360000160020160009054906101000a900460ff166003811115610b4957610b48611679565b5b14158015610b90575060006003811115610b6657610b65611679565b5b8360040160020160009054906101000a900460ff166003811115610b8d57610b8c611679565b5b14155b15610b9f57610b9e8661103e565b5b505050505050565b600060016000838152602001908152602001600020905060006002811115610bd257610bd1611679565b5b8160090160009054906101000a900460ff166002811115610bf657610bf5611679565b5b14610c36576040517f08c379a0000000000000000000000000000000000000000000000000000000008152600401610c2d90612000565b60405180910390fd5b600073ffffffffffffffffffffffffffffffffffffffff168160000160000160009054906101000a900473ffffffffffffffffffffffffffffffffffffffff1673ffffffffffffffffffffffffffffffffffffffff1603610db95760405180608001604052803373ffffffffffffffffffffffffffffffffffffffff1681526020016000801b815260200160006003811115610cd557610cd4611679565b5b8152602001428152508160000160008201518160000160006101000a81548173ffffffffffffffffffffffffffffffffffffffff021916908373ffffffffffffffffffffffffffffffffffffffff1602179055506020820151816001015560408201518160020160006101000a81548160ff02191690836003811115610d5e57610d5d611679565b5b0217905550606082015181600301559050503373ffffffffffffffffffffffffffffffffffffffff16827f87969bc7faf902221a147b95ceba76e011c5efb0339a0a8ee7a2bb82d9cfbbd660405160405180910390a361103a565b600073ffffffffffffffffffffffffffffffffffffffff168160040160000160009054906101000a900473ffffffffffffffffffffffffffffffffffffffff1673ffffffffffffffffffffffffffffffffffffffff1603610ffe578060000160000160009054906101000a900473ffffffffffffffffffffffffffffffffffffffff1673ffffffffffffffffffffffffffffffffffffffff163373ffffffffffffffffffffffffffffffffffffffff1603610ea9576040517f08c379a0000000000000000000000000000000000000000000000000000000008152600401610ea09061206c565b60405180910390fd5b60405180608001604052803373ffffffffffffffffffffffffffffffffffffffff1681526020016000801b815260200160006003811115610eed57610eec611679565b5b8152602001428152508160040160008201518160000160006101000a81548173ffffffffffffffffffffffffffffffffffffffff021916908373ffffffffffffffffffffffffffffffffffffffff1602179055506020820151816001015560408201518160020160006101000a81548160ff02191690836003811115610f7657610f75611679565b5b02179055506060820151816003015590505060018160090160006101000a81548160ff02191690836002811115610fb057610faf611679565b5b02179055503373ffffffffffffffffffffffffffffffffffffffff16827f87969bc7faf902221a147b95ceba76e011c5efb0339a0a8ee7a2bb82d9cfbbd660405160405180910390a3611039565b6040517f08c379a0000000000000000000000000000000000000000000000000000000008152600401611030906120d8565b60405180910390fd5b5b5050565b60006001600083815260200190815260200160002090506000600381111561106957611068611679565b5b8160000160020160009054906101000a900460ff1660038111156110905761108f611679565b5b036110d0576040517f08c379a00000000000000000000000000000000000000000000000000000000081526004016110c790612144565b60405180910390fd5b600060038111156110e4576110e3611679565b5b8160040160020160009054906101000a900460ff16600381111561110b5761110a611679565b5b0361114b576040517f08c379a0000000000000000000000000000000000000000000000000000000008152600401611142906121b0565b60405180910390fd5b60008160040160020160009054906101000a900460ff16600381111561117457611173611679565b5b8260000160020160009054906101000a900460ff16600381111561119b5761119a611679565b5b036112a1578160000160000160009054906101000a900473ffffffffffffffffffffffffffffffffffffffff1673ffffffffffffffffffffffffffffffffffffffff166108fc600284600801546111f291906121ff565b9081150290604051600060405180830381858888f1935050505015801561121d573d6000803e3d6000fd5b508160040160000160009054906101000a900473ffffffffffffffffffffffffffffffffffffffff1673ffffffffffffffffffffffffffffffffffffffff166108fc6002846008015461127091906121ff565b9081150290604051600060405180830381858888f1935050505015801561129b573d6000803e3d6000fd5b50611523565b600160038111156112b5576112b4611679565b5b8260000160020160009054906101000a900460ff1660038111156112dc576112db611679565b5b14801561132057506003808111156112f7576112f6611679565b5b8260040160020160009054906101000a900460ff16600381111561131e5761131d611679565b5b145b806113a6575060038081111561133957611338611679565b5b8260000160020160009054906101000a900460ff1660038111156113605761135f611679565b5b1480156113a557506002600381111561137c5761137b611679565b5b8260040160020160009054906101000a900460ff1660038111156113a3576113a2611679565b5b145b5b8061142d5750600260038111156113c0576113bf611679565b5b8260000160020160009054906101000a900460ff1660038111156113e7576113e6611679565b5b14801561142c57506001600381111561140357611402611679565b5b8260040160020160009054906101000a900460ff16600381111561142a57611429611679565b5b145b5b156114ac578160000160000160009054906101000a900473ffffffffffffffffffffffffffffffffffffffff1690508073ffffffffffffffffffffffffffffffffffffffff166108fc83600801549081150290604051600060405180830381858888f193505050501580156114a6573d6000803e3d6000fd5b50611522565b8160040160000160009054906101000a900473ffffffffffffffffffffffffffffffffffffffff1690508073ffffffffffffffffffffffffffffffffffffffff166108fc83600801549081150290604051600060405180830381858888f19350505050158015611520573d6000803e3d6000fd5b505b5b8073ffffffffffffffffffffffffffffffffffffffff16837ff6ae188cc6336ef5ad970d3c81cda5814b4c4902540924c6924debe94ece13eb846008015460405161156e919061185f565b60405180910390a360028260090160006101000a81548160ff0219169083600281111561159e5761159d611679565b5b0217905550505050565b6000604051905090565b600080fd5b600080fd5b6000819050919050565b6115cf816115bc565b81146115da57600080fd5b50565b6000813590506115ec816115c6565b92915050565b600060208284031215611608576116076115b2565b5b6000611616848285016115dd565b91505092915050565b600073ffffffffffffffffffffffffffffffffffffffff82169050919050565b600061164a8261161f565b9050919050565b61165a8161163f565b82525050565b6000819050919050565b61167381611660565b82525050565b7f4e487b7100000000000000000000000000000000000000000000000000000000600052602160045260246000fd5b600481106116b9576116b8611679565b5b50565b60008190506116ca826116a8565b919050565b60006116da826116bc565b9050919050565b6116ea816116cf565b82525050565b6116f9816115bc565b82525050565b6080820160008201516117156000850182611651565b506020820151611728602085018261166a565b50604082015161173b60408501826116e1565b50606082015161174e60608501826116f0565b50505050565b61175d816115bc565b82525050565b6003811061177457611773611679565b5b50565b600081905061178582611763565b919050565b600061179582611777565b9050919050565b6117a58161178a565b82525050565b6000610140820190506117c160008301876116ff565b6117ce60808301866116ff565b6117dc610100830185611754565b6117ea61012083018461179c565b95945050505050565b6117fc81611660565b811461180757600080fd5b50565b600081359050611819816117f3565b92915050565b60008060408385031215611836576118356115b2565b5b6000611844858286016115dd565b92505060206118558582860161180a565b9150509250929050565b60006020820190506118746000830184611754565b92915050565b60006118858261161f565b9050919050565b6118958161187a565b82525050565b60006020820190506118b0600083018461188c565b92915050565b600481106118c357600080fd5b50565b6000813590506118d5816118b6565b92915050565b600080fd5b600080fd5b6000601f19601f8301169050919050565b7f4e487b7100000000000000000000000000000000000000000000000000000000600052604160045260246000fd5b61192e826118e5565b810181811067ffffffffffffffff8211171561194d5761194c6118f6565b5b80604052505050565b60006119606115a8565b905061196c8282611925565b919050565b600067ffffffffffffffff82111561198c5761198b6118f6565b5b611995826118e5565b9050602081019050919050565b82818337600083830152505050565b60006119c46119bf84611971565b611956565b9050828152602081018484840111156119e0576119df6118e0565b5b6119eb8482856119a2565b509392505050565b600082601f830112611a0857611a076118db565b5b8135611a188482602086016119b1565b91505092915050565b600080600060608486031215611a3a57611a396115b2565b5b6000611a48868287016115dd565b9350506020611a59868287016118c6565b925050604084013567ffffffffffffffff811115611a7a57611a796115b7565b5b611a86868287016119f3565b9150509250925092565b600082825260208201905092915050565b7f47616d65206973206e6f7420616363657074696e67206d6f7665730000000000600082015250565b6000611ad7601b83611a90565b9150611ae282611aa1565b602082019050919050565b60006020820190508181036000830152611b0681611aca565b9050919050565b7f4f6e6c7920706c617965727320696e207468652067616d652063616e20636f6d60008201527f6d6974206d6f7665730000000000000000000000000000000000000000000000602082015250565b6000611b69602983611a90565b9150611b7482611b0d565b604082019050919050565b60006020820190508181036000830152611b9881611b5c565b9050919050565b7f4d6f766520616c726561647920636f6d6d697474656400000000000000000000600082015250565b6000611bd5601683611a90565b9150611be082611b9f565b602082019050919050565b60006020820190508181036000830152611c0481611bc8565b9050919050565b7f4e487b7100000000000000000000000000000000000000000000000000000000600052601160045260246000fd5b6000611c45826115bc565b91507fffffffffffffffffffffffffffffffffffffffffffffffffffffffffffffffff8203611c7757611c76611c0b565b5b600182019050919050565b6000819050919050565b6000819050919050565b6000611cb1611cac611ca784611c82565b611c8c565b6115bc565b9050919050565b611cc181611c96565b82525050565b6000602082019050611cdc6000830184611cb8565b92915050565b7f47616d65206973206e6f7420696e2072657665616c2070686173650000000000600082015250565b6000611d18601b83611a90565b9150611d2382611ce2565b602082019050919050565b60006020820190508181036000830152611d4781611d0b565b9050919050565b7f4f6e6c7920706c617965727320696e207468652067616d652063616e2072657660008201527f65616c206d6f7665730000000000000000000000000000000000000000000000602082015250565b6000611daa602983611a90565b9150611db582611d4e565b604082019050919050565b60006020820190508181036000830152611dd981611d9d565b9050919050565b7f4d6f766520616c72656164792072657665616c65640000000000000000000000600082015250565b6000611e16601583611a90565b9150611e2182611de0565b602082019050919050565b60006020820190508181036000830152611e4581611e09565b9050919050565b611e55816116cf565b82525050565b600081519050919050565b60005b83811015611e84578082015181840152602081019050611e69565b60008484015250505050565b6000611e9b82611e5b565b611ea58185611a90565b9350611eb5818560208601611e66565b611ebe816118e5565b840191505092915050565b6000604082019050611ede6000830185611e4c565b8181036020830152611ef08184611e90565b90509392505050565b6000611f04826115bc565b9150611f0f836115bc565b9250828201905080821115611f2757611f26611c0b565b5b92915050565b7f496e76616c6964206d6f7665206f722073656372657400000000000000000000600082015250565b6000611f63601683611a90565b9150611f6e82611f2d565b602082019050919050565b60006020820190508181036000830152611f9281611f56565b9050919050565b6000602082019050611fae6000830184611e4c565b92915050565b7f47616d65206973206e6f742077616974696e6720666f7220706c617965727300600082015250565b6000611fea601f83611a90565b9150611ff582611fb4565b602082019050919050565b6000602082019050818103600083015261201981611fdd565b9050919050565b7f506c61796572312063616e6e6f74206a6f696e20616761696e00000000000000600082015250565b6000612056601983611a90565b915061206182612020565b602082019050919050565b6000602082019050818103600083015261208581612049565b9050919050565b7f47616d6520616c7265616479206861732074776f20706c617965727300000000600082015250565b60006120c2601c83611a90565b91506120cd8261208c565b602082019050919050565b600060208201905081810360008301526120f1816120b5565b9050919050565b7f506c6179657231206d6f7665206e6f742072657665616c656400000000000000600082015250565b600061212e601983611a90565b9150612139826120f8565b602082019050919050565b6000602082019050818103600083015261215d81612121565b9050919050565b7f506c6179657232206d6f7665206e6f742072657665616c656400000000000000600082015250565b600061219a601983611a90565b91506121a582612164565b602082019050919050565b600060208201905081810360008301526121c98161218d565b9050919050565b7f4e487b7100000000000000000000000000000000000000000000000000000000600052601260045260246000fd5b600061220a826115bc565b9150612215836115bc565b925082612225576122246121d0565b5b82820490509291505056fea264697066735822122063d6a05c7a4179f074b70151e3f7ba6450c8908e1820b71573edbeca3aed16c764736f6c63430008140033",
  "linkReferences": {},
  "deployedLinkReferences": {}
}