{
  "_format": "hh-sol-artifact-1",
  "contractName": "RockPaperScissors",
  "sourceName": "contracts/RPS.sol",
  "abi": [
    {
      "inputs": [],
      "stateMutability": "nonpayable",
      "type": "constructor"
    },
    {
      "anonymous": false,
      "inputs": [
        {
          "indexed": false,
          "internalType": "string",
          "name": "message",
          "type": "string"
        },
        {
          "indexed": false,
          "internalType": "uint256",
          "name": "value",
          "type": "uint256"
        }
      ],
      "name": "DebugLog",
      "type": "event"
    },
    {
      "anonymous": false,
      "inputs": [
        {
          "indexed": false,
          "internalType": "string",
          "name": "message",
          "type": "string"
        },
        {
          "indexed": false,
          "internalType": "address",
          "name": "addr",
          "type": "address"
        }
      ],
      "name": "DebugLog",
      "type": "event"
    },
    {
      "anonymous": false,
      "inputs": [
        {
          "indexed": true,
          "internalType": "uint256",
          "name": "gameId",
          "type": "uint256"
        },
        {
          "indexed": true,
          "internalType": "address",
          "name": "winner",
          "type": "address"
        },
        {
          "indexed": false,
          "internalType": "uint256",
          "name": "pot",
          "type": "uint256"
        }
      ],
      "name": "GameCompleted",
      "type": "event"
    },
    {
      "anonymous": false,
      "inputs": [
        {
          "indexed": true,
          "internalType": "uint256",
          "name": "gameId",
          "type": "uint256"
        },
        {
          "indexed": false,
          "internalType": "uint256",
          "name": "betAmount",
          "type": "uint256"
        }
      ],
      "name": "GameCreated",
      "type": "event"
    },
    {
      "anonymous": false,
      "inputs": [
        {
          "indexed": true,
          "internalType": "uint256",
          "name": "gameId",
          "type": "uint256"
        },
        {
          "indexed": true,
          "internalType": "address",
          "name": "player",
          "type": "address"
        },
        {
          "indexed": false,
          "internalType": "enum RockPaperScissors.Move",
          "name": "move",
          "type": "uint8"
        }
      ],
      "name": "MoveRevealed",
      "type": "event"
    },
    {
      "anonymous": false,
      "inputs": [
        {
          "indexed": true,
          "internalType": "uint256",
          "name": "gameId",
          "type": "uint256"
        },
        {
          "indexed": true,
          "internalType": "address",
          "name": "player",
          "type": "address"
        }
      ],
      "name": "MovesCommitted",
      "type": "event"
    },
    {
      "anonymous": false,
      "inputs": [
        {
          "indexed": true,
          "internalType": "uint256",
          "name": "gameId",
          "type": "uint256"
        },
        {
          "indexed": true,
          "internalType": "address",
          "name": "player",
          "type": "address"
        }
      ],
      "name": "PlayerJoined",
      "type": "event"
    },
    {
      "anonymous": false,
      "inputs": [
        {
          "indexed": true,
          "internalType": "uint256",
          "name": "gameId",
          "type": "uint256"
        },
        {
          "indexed": true,
          "internalType": "address",
          "name": "player",
          "type": "address"
        }
      ],
      "name": "PlayerLeft",
      "type": "event"
    },
    {
      "inputs": [
        {
          "internalType": "address",
          "name": "",
          "type": "address"
        }
      ],
      "name": "activeGame",
      "outputs": [
        {
          "internalType": "uint256",
          "name": "",
          "type": "uint256"
        }
      ],
      "stateMutability": "view",
      "type": "function"
    },
    {
      "inputs": [
        {
          "internalType": "uint256",
          "name": "gameId",
          "type": "uint256"
        },
        {
          "internalType": "bytes32",
          "name": "hashedMove",
          "type": "bytes32"
        }
      ],
      "name": "commitMove",
      "outputs": [],
      "stateMutability": "nonpayable",
      "type": "function"
    },
    {
      "inputs": [],
      "name": "createGame",
      "outputs": [
        {
          "internalType": "uint256",
          "name": "",
          "type": "uint256"
        }
      ],
      "stateMutability": "nonpayable",
      "type": "function"
    },
    {
      "inputs": [],
      "name": "gameCounter",
      "outputs": [
        {
          "internalType": "uint256",
          "name": "",
          "type": "uint256"
        }
      ],
      "stateMutability": "view",
      "type": "function"
    },
    {
      "inputs": [
        {
          "internalType": "uint256",
          "name": "",
          "type": "uint256"
        }
      ],
      "name": "games",
      "outputs": [
        {
          "components": [
            {
              "internalType": "address payable",
              "name": "addr",
              "type": "address"
            },
            {
              "internalType": "bytes32",
              "name": "hashedMove",
              "type": "bytes32"
            },
            {
              "internalType": "enum RockPaperScissors.Move",
              "name": "revealedMove",
              "type": "uint8"
            },
            {
              "internalType": "uint256",
              "name": "joinTime",
              "type": "uint256"
            }
          ],
          "internalType": "struct RockPaperScissors.Player",
          "name": "player1",
          "type": "tuple"
        },
        {
          "components": [
            {
              "internalType": "address payable",
              "name": "addr",
              "type": "address"
            },
            {
              "internalType": "bytes32",
              "name": "hashedMove",
              "type": "bytes32"
            },
            {
              "internalType": "enum RockPaperScissors.Move",
              "name": "revealedMove",
              "type": "uint8"
            },
            {
              "internalType": "uint256",
              "name": "joinTime",
              "type": "uint256"
            }
          ],
          "internalType": "struct RockPaperScissors.Player",
          "name": "player2",
          "type": "tuple"
        },
        {
          "internalType": "uint256",
          "name": "pot",
          "type": "uint256"
        },
        {
          "internalType": "uint256",
          "name": "betAmount",
          "type": "uint256"
        },
        {
          "internalType": "uint256",
          "name": "startTime",
          "type": "uint256"
        },
        {
          "internalType": "bool",
          "name": "isActive",
          "type": "bool"
        },
        {
          "internalType": "enum RockPaperScissors.GameStatus",
          "name": "status",
          "type": "uint8"
        }
      ],
      "stateMutability": "view",
      "type": "function"
    },
    {
      "inputs": [
        {
          "internalType": "uint256",
          "name": "gameId",
          "type": "uint256"
        }
      ],
      "name": "getPlayerCount",
      "outputs": [
        {
          "internalType": "uint256",
          "name": "",
          "type": "uint256"
        }
      ],
      "stateMutability": "view",
      "type": "function"
    },
    {
      "inputs": [
        {
          "internalType": "uint256",
          "name": "gameId",
          "type": "uint256"
        }
      ],
      "name": "joinGame",
      "outputs": [],
      "stateMutability": "payable",
      "type": "function"
    },
    {
      "inputs": [
        {
          "internalType": "uint256",
          "name": "gameId",
          "type": "uint256"
        }
      ],
      "name": "leaveGame",
      "outputs": [],
      "stateMutability": "nonpayable",
      "type": "function"
    },
    {
      "inputs": [],
      "name": "owner",
      "outputs": [
        {
          "internalType": "address",
          "name": "",
          "type": "address"
        }
      ],
      "stateMutability": "view",
      "type": "function"
    },
    {
      "inputs": [
        {
          "internalType": "uint256",
          "name": "gameId",
          "type": "uint256"
        },
        {
          "internalType": "enum RockPaperScissors.Move",
          "name": "move",
          "type": "uint8"
        },
        {
          "internalType": "string",
          "name": "secret",
          "type": "string"
        }
      ],
      "name": "revealMove",
      "outputs": [],
      "stateMutability": "nonpayable",
      "type": "function"
    }
  ],
  "bytecode": "0x608060405234801561001057600080fd5b50336000806101000a81548173ffffffffffffffffffffffffffffffffffffffff021916908373ffffffffffffffffffffffffffffffffffffffff160217905550613195806100606000396000f3fe6080604052600436106100915760003560e01c80638da5cb5b116100595780638da5cb5b14610181578063a83d3e8d146101ac578063ab1205e9146101e9578063bd675c0e14610226578063efaa55a01461024f57610091565b8063117a5b901461009657806326826f62146100d95780632e0be39a146101025780633feef58a1461012d5780637255d72914610156575b600080fd5b3480156100a257600080fd5b506100bd60048036038101906100b89190612170565b61026b565b6040516100d09796959493929190612344565b60405180910390f35b3480156100e557600080fd5b5061010060048036038101906100fb91906123e5565b610425565b005b34801561010e57600080fd5b506101176106ff565b6040516101249190612425565b60405180910390f35b34801561013957600080fd5b50610154600480360381019061014f9190612170565b610705565b005b34801561016257600080fd5b5061016b610d41565b6040516101789190612425565b60405180910390f35b34801561018d57600080fd5b50610196610def565b6040516101a39190612461565b60405180910390f35b3480156101b857600080fd5b506101d360048036038101906101ce91906124a8565b610e13565b6040516101e09190612425565b60405180910390f35b3480156101f557600080fd5b50610210600480360381019061020b9190612170565b610e2b565b60405161021d9190612425565b60405180910390f35b34801561023257600080fd5b5061024d60048036038101906102489190612640565b610f22565b005b61026960048036038101906102649190612170565b611436565b005b6001602052806000526040600020600091509050806000016040518060800160405290816000820160009054906101000a900473ffffffffffffffffffffffffffffffffffffffff1673ffffffffffffffffffffffffffffffffffffffff1673ffffffffffffffffffffffffffffffffffffffff168152602001600182015481526020016002820160009054906101000a900460ff166003811115610313576103126121f7565b5b6003811115610325576103246121f7565b5b815260200160038201548152505090806004016040518060800160405290816000820160009054906101000a900473ffffffffffffffffffffffffffffffffffffffff1673ffffffffffffffffffffffffffffffffffffffff1673ffffffffffffffffffffffffffffffffffffffff168152602001600182015481526020016002820160009054906101000a900460ff1660038111156103c8576103c76121f7565b5b60038111156103da576103d96121f7565b5b81526020016003820154815250509080600801549080600901549080600a01549080600b0160009054906101000a900460ff169080600b0160019054906101000a900460ff16905087565b600060016000848152602001908152602001600020905080600b0160009054906101000a900460ff1661048d576040517f08c379a00000000000000000000000000000000000000000000000000000000081526004016104849061270c565b60405180910390fd5b600160028111156104a1576104a06121f7565b5b81600b0160019054906101000a900460ff1660028111156104c5576104c46121f7565b5b14610505576040517f08c379a00000000000000000000000000000000000000000000000000000000081526004016104fc90612778565b60405180910390fd5b8060000160000160009054906101000a900473ffffffffffffffffffffffffffffffffffffffff1673ffffffffffffffffffffffffffffffffffffffff163373ffffffffffffffffffffffffffffffffffffffff1614806105b857508060040160000160009054906101000a900473ffffffffffffffffffffffffffffffffffffffff1673ffffffffffffffffffffffffffffffffffffffff163373ffffffffffffffffffffffffffffffffffffffff16145b6105f7576040517f08c379a00000000000000000000000000000000000000000000000000000000081526004016105ee9061280a565b60405180910390fd5b60008160000160000160009054906101000a900473ffffffffffffffffffffffffffffffffffffffff1673ffffffffffffffffffffffffffffffffffffffff163373ffffffffffffffffffffffffffffffffffffffff161461065c5781600401610661565b816000015b90506000801b8160010154146106ac576040517f08c379a00000000000000000000000000000000000000000000000000000000081526004016106a390612876565b60405180910390fd5b8281600101819055503373ffffffffffffffffffffffffffffffffffffffff16847f6c58628e5bb60ea99b4f32f996f3b529a09be8f332da2e6f6cbd245af76e034760405160405180910390a350505050565b60025481565b60006001600083815260200190815260200160002090508060000160000160009054906101000a900473ffffffffffffffffffffffffffffffffffffffff1673ffffffffffffffffffffffffffffffffffffffff163373ffffffffffffffffffffffffffffffffffffffff1614806107cf57508060040160000160009054906101000a900473ffffffffffffffffffffffffffffffffffffffff1673ffffffffffffffffffffffffffffffffffffffff163373ffffffffffffffffffffffffffffffffffffffff16145b61080e576040517f08c379a0000000000000000000000000000000000000000000000000000000008152600401610805906128e2565b60405180910390fd5b60008160000160000160009054906101000a900473ffffffffffffffffffffffffffffffffffffffff1673ffffffffffffffffffffffffffffffffffffffff163373ffffffffffffffffffffffffffffffffffffffff16036109c1576040518060800160405280600073ffffffffffffffffffffffffffffffffffffffff1681526020016000801b8152602001600060038111156108af576108ae6121f7565b5b815260200160008152508260000160008201518160000160006101000a81548173ffffffffffffffffffffffffffffffffffffffff021916908373ffffffffffffffffffffffffffffffffffffffff1602179055506020820151816001015560408201518160020160006101000a81548160ff02191690836003811115610939576109386121f7565b5b021790555060608201518160030155905050816009015490508160000160000160009054906101000a900473ffffffffffffffffffffffffffffffffffffffff1673ffffffffffffffffffffffffffffffffffffffff166108fc829081150290604051600060405180830381858888f193505050501580156109bf573d6000803e3d6000fd5b505b8160040160000160009054906101000a900473ffffffffffffffffffffffffffffffffffffffff1673ffffffffffffffffffffffffffffffffffffffff163373ffffffffffffffffffffffffffffffffffffffff1603610b72576040518060800160405280600073ffffffffffffffffffffffffffffffffffffffff1681526020016000801b815260200160006003811115610a6057610a5f6121f7565b5b815260200160008152508260040160008201518160000160006101000a81548173ffffffffffffffffffffffffffffffffffffffff021916908373ffffffffffffffffffffffffffffffffffffffff1602179055506020820151816001015560408201518160020160006101000a81548160ff02191690836003811115610aea57610ae96121f7565b5b021790555060608201518160030155905050816009015490508160040160000160009054906101000a900473ffffffffffffffffffffffffffffffffffffffff1673ffffffffffffffffffffffffffffffffffffffff166108fc829081150290604051600060405180830381858888f19350505050158015610b70573d6000803e3d6000fd5b505b80826008015410610b995780826008016000828254610b919190612931565b925050819055505b600073ffffffffffffffffffffffffffffffffffffffff168260000160000160009054906101000a900473ffffffffffffffffffffffffffffffffffffffff1673ffffffffffffffffffffffffffffffffffffffff16148015610c4f5750600073ffffffffffffffffffffffffffffffffffffffff168260040160000160009054906101000a900473ffffffffffffffffffffffffffffffffffffffff1673ffffffffffffffffffffffffffffffffffffffff16145b15610cb357600082600b0160016101000a81548160ff02191690836002811115610c7c57610c7b6121f7565b5b02179055506000826008018190555060008260090181905550600082600b0160006101000a81548160ff0219169083151502179055505b6000600360003373ffffffffffffffffffffffffffffffffffffffff1673ffffffffffffffffffffffffffffffffffffffff168152602001908152602001600020819055503373ffffffffffffffffffffffffffffffffffffffff16837fb2bd643202385c64d9814c6c3fa61b1ba098d6652292e9d9a6f1a0cdae6eb82460405160405180910390a3505050565b600060026000815480929190610d5690612965565b91905055506000600160006002548152602001908152602001600020905060008160080181905550600081600b0160016101000a81548160ff02191690836002811115610da657610da56121f7565b5b02179055506002547fa26856d25e558c79e1632806bc6824075cf59885a115825f2aab62385a3f71426000604051610dde91906129f2565b60405180910390a260025491505090565b60008054906101000a900473ffffffffffffffffffffffffffffffffffffffff1681565b60036020528060005260406000206000915090505481565b60008060016000848152602001908152602001600020905060008073ffffffffffffffffffffffffffffffffffffffff168260000160000160009054906101000a900473ffffffffffffffffffffffffffffffffffffffff1673ffffffffffffffffffffffffffffffffffffffff1614610eae578080610eaa90612965565b9150505b600073ffffffffffffffffffffffffffffffffffffffff168260040160000160009054906101000a900473ffffffffffffffffffffffffffffffffffffffff1673ffffffffffffffffffffffffffffffffffffffff1614610f18578080610f1490612965565b9150505b8092505050919050565b600060016000858152602001908152602001600020905060016002811115610f4d57610f4c6121f7565b5b81600b0160019054906101000a900460ff166002811115610f7157610f706121f7565b5b14610fb1576040517f08c379a0000000000000000000000000000000000000000000000000000000008152600401610fa890612a59565b60405180910390fd5b8060000160000160009054906101000a900473ffffffffffffffffffffffffffffffffffffffff1673ffffffffffffffffffffffffffffffffffffffff163373ffffffffffffffffffffffffffffffffffffffff16148061106457508060040160000160009054906101000a900473ffffffffffffffffffffffffffffffffffffffff1673ffffffffffffffffffffffffffffffffffffffff163373ffffffffffffffffffffffffffffffffffffffff16145b6110a3576040517f08c379a000000000000000000000000000000000000000000000000000000000815260040161109a90612aeb565b60405180910390fd5b60008160000160000160009054906101000a900473ffffffffffffffffffffffffffffffffffffffff1673ffffffffffffffffffffffffffffffffffffffff163373ffffffffffffffffffffffffffffffffffffffff1614611108578160040161110d565b816000015b905060006003811115611123576111226121f7565b5b8160020160009054906101000a900460ff166003811115611147576111466121f7565b5b14611187576040517f08c379a000000000000000000000000000000000000000000000000000000000815260040161117e90612b57565b60405180910390fd5b6000848460405160200161119c929190612bf4565b604051602081830303815290604052805190602001209050600a82600301546111c59190612c24565b421180156111d957506000801b8260010154145b156112105760018260020160006101000a81548160ff02191690836003811115611206576112056121f7565b5b0217905550611283565b81600101548114611256576040517f08c379a000000000000000000000000000000000000000000000000000000000815260040161124d90612ca4565b60405180910390fd5b848260020160006101000a81548160ff0219169083600381111561127d5761127c6121f7565b5b02179055505b3373ffffffffffffffffffffffffffffffffffffffff16867fdd17665bf97c2a169e97f4f62f36023bf40807eb797a922864394a910d5c37c88460020160009054906101000a900460ff166040516112db9190612cc4565b60405180910390a3600060038111156112f7576112f66121f7565b5b8360000160020160009054906101000a900460ff16600381111561131e5761131d6121f7565b5b1415801561136557506000600381111561133b5761133a6121f7565b5b8360040160020160009054906101000a900460ff166003811115611362576113616121f7565b5b14155b156113745761137386611a80565b5b7ff6ff2ad7fc16bda2a7d32462729431bce3ebe9b75cc7c9b35a0adfbf7e7bb9e68360000160020160009054906101000a900460ff1660038111156113bc576113bb6121f7565b5b6040516113c99190612d2b565b60405180910390a17ff6ff2ad7fc16bda2a7d32462729431bce3ebe9b75cc7c9b35a0adfbf7e7bb9e68360000160020160009054906101000a900460ff166003811115611419576114186121f7565b5b6040516114269190612d2b565b60405180910390a1505050505050565b60008111611479576040517f08c379a000000000000000000000000000000000000000000000000000000000815260040161147090612da5565b60405180910390fd5b6000600360003373ffffffffffffffffffffffffffffffffffffffff1673ffffffffffffffffffffffffffffffffffffffff16815260200190815260200160002054146114fb576040517f08c379a00000000000000000000000000000000000000000000000000000000081526004016114f290612e11565b60405180910390fd5b600060016000838152602001908152602001600020905060006002811115611526576115256121f7565b5b81600b0160019054906101000a900460ff16600281111561154a576115496121f7565b5b1461158a576040517f08c379a000000000000000000000000000000000000000000000000000000000815260040161158190612e57565b60405180910390fd5b600034116115cd576040517f08c379a00000000000000000000000000000000000000000000000000000000081526004016115c490612ec3565b60405180910390fd5b600073ffffffffffffffffffffffffffffffffffffffff168160000160000160009054906101000a900473ffffffffffffffffffffffffffffffffffffffff1673ffffffffffffffffffffffffffffffffffffffff16036117305760405180608001604052803373ffffffffffffffffffffffffffffffffffffffff1681526020016000801b81526020016000600381111561166c5761166b6121f7565b5b8152602001428152508160000160008201518160000160006101000a81548173ffffffffffffffffffffffffffffffffffffffff021916908373ffffffffffffffffffffffffffffffffffffffff1602179055506020820151816001015560408201518160020160006101000a81548160ff021916908360038111156116f5576116f46121f7565b5b021790555060608201518160030155905050348160090181905550348160080160008282546117249190612c24565b925050819055506119f4565b600073ffffffffffffffffffffffffffffffffffffffff168160040160000160009054906101000a900473ffffffffffffffffffffffffffffffffffffffff1673ffffffffffffffffffffffffffffffffffffffff16036119b8578060000160000160009054906101000a900473ffffffffffffffffffffffffffffffffffffffff1673ffffffffffffffffffffffffffffffffffffffff163373ffffffffffffffffffffffffffffffffffffffff1603611820576040517f08c379a000000000000000000000000000000000000000000000000000000000815260040161181790612f2f565b60405180910390fd5b80600901543414611866576040517f08c379a000000000000000000000000000000000000000000000000000000000815260040161185d90612f9b565b60405180910390fd5b60405180608001604052803373ffffffffffffffffffffffffffffffffffffffff1681526020016000801b8152602001600060038111156118aa576118a96121f7565b5b8152602001428152508160040160008201518160000160006101000a81548173ffffffffffffffffffffffffffffffffffffffff021916908373ffffffffffffffffffffffffffffffffffffffff1602179055506020820151816001015560408201518160020160006101000a81548160ff02191690836003811115611933576119326121f7565b5b021790555060608201518160030155905050348160080160008282546119599190612c24565b92505081905550600181600b0160016101000a81548160ff02191690836002811115611988576119876121f7565b5b0217905550600181600b0160006101000a81548160ff0219169083151502179055504281600a01819055506119f3565b6040517f08c379a00000000000000000000000000000000000000000000000000000000081526004016119ea90613007565b60405180910390fd5b5b81600360003373ffffffffffffffffffffffffffffffffffffffff1673ffffffffffffffffffffffffffffffffffffffff168152602001908152602001600020819055503373ffffffffffffffffffffffffffffffffffffffff16827f87969bc7faf902221a147b95ceba76e011c5efb0339a0a8ee7a2bb82d9cfbbd660405160405180910390a35050565b600060016000838152602001908152602001600020905060006003811115611aab57611aaa6121f7565b5b8160000160020160009054906101000a900460ff166003811115611ad257611ad16121f7565b5b03611b12576040517f08c379a0000000000000000000000000000000000000000000000000000000008152600401611b0990613073565b60405180910390fd5b60006003811115611b2657611b256121f7565b5b8160040160020160009054906101000a900460ff166003811115611b4d57611b4c6121f7565b5b03611b8d576040517f08c379a0000000000000000000000000000000000000000000000000000000008152600401611b84906130df565b60405180910390fd5b60008160040160020160009054906101000a900460ff166003811115611bb657611bb56121f7565b5b8260000160020160009054906101000a900460ff166003811115611bdd57611bdc6121f7565b5b03611d3657600060028360080154611bf5919061312e565b90506000811115611cdd578260000160000160009054906101000a900473ffffffffffffffffffffffffffffffffffffffff1673ffffffffffffffffffffffffffffffffffffffff166108fc829081150290604051600060405180830381858888f19350505050158015611c6d573d6000803e3d6000fd5b508260040160000160009054906101000a900473ffffffffffffffffffffffffffffffffffffffff1673ffffffffffffffffffffffffffffffffffffffff166108fc829081150290604051600060405180830381858888f19350505050158015611cdb573d6000803e3d6000fd5b505b8173ffffffffffffffffffffffffffffffffffffffff16847ff6ae188cc6336ef5ad970d3c81cda5814b4c4902540924c6924debe94ece13eb8560080154604051611d289190612425565b60405180910390a350611f22565b60016003811115611d4a57611d496121f7565b5b8260000160020160009054906101000a900460ff166003811115611d7157611d706121f7565b5b148015611db55750600380811115611d8c57611d8b6121f7565b5b8260040160020160009054906101000a900460ff166003811115611db357611db26121f7565b5b145b80611e3b5750600380811115611dce57611dcd6121f7565b5b8260000160020160009054906101000a900460ff166003811115611df557611df46121f7565b5b148015611e3a575060026003811115611e1157611e106121f7565b5b8260040160020160009054906101000a900460ff166003811115611e3857611e376121f7565b5b145b5b80611ec2575060026003811115611e5557611e546121f7565b5b8260000160020160009054906101000a900460ff166003811115611e7c57611e7b6121f7565b5b148015611ec1575060016003811115611e9857611e976121f7565b5b8260040160020160009054906101000a900460ff166003811115611ebf57611ebe6121f7565b5b145b5b15611ef6578160000160000160009054906101000a900473ffffffffffffffffffffffffffffffffffffffff169050611f21565b8160040160000160009054906101000a900473ffffffffffffffffffffffffffffffffffffffff1690505b5b600073ffffffffffffffffffffffffffffffffffffffff168173ffffffffffffffffffffffffffffffffffffffff1614611fa2578073ffffffffffffffffffffffffffffffffffffffff166108fc83600801549081150290604051600060405180830381858888f19350505050158015611fa0573d6000803e3d6000fd5b505b8073ffffffffffffffffffffffffffffffffffffffff16837ff6ae188cc6336ef5ad970d3c81cda5814b4c4902540924c6924debe94ece13eb8460080154604051611fed9190612425565b60405180910390a3600282600b0160016101000a81548160ff0219169083600281111561201d5761201c6121f7565b5b0217905550600082600b0160006101000a81548160ff021916908315150217905550600082600801819055506000600360008460000160000160009054906101000a900473ffffffffffffffffffffffffffffffffffffffff1673ffffffffffffffffffffffffffffffffffffffff1673ffffffffffffffffffffffffffffffffffffffff168152602001908152602001600020819055506000600360008460040160000160009054906101000a900473ffffffffffffffffffffffffffffffffffffffff1673ffffffffffffffffffffffffffffffffffffffff1673ffffffffffffffffffffffffffffffffffffffff16815260200190815260200160002081905550505050565b6000604051905090565b600080fd5b600080fd5b6000819050919050565b61214d8161213a565b811461215857600080fd5b50565b60008135905061216a81612144565b92915050565b60006020828403121561218657612185612130565b5b60006121948482850161215b565b91505092915050565b600073ffffffffffffffffffffffffffffffffffffffff82169050919050565b60006121c88261219d565b9050919050565b6121d8816121bd565b82525050565b6000819050919050565b6121f1816121de565b82525050565b7f4e487b7100000000000000000000000000000000000000000000000000000000600052602160045260246000fd5b60048110612237576122366121f7565b5b50565b600081905061224882612226565b919050565b60006122588261223a565b9050919050565b6122688161224d565b82525050565b6122778161213a565b82525050565b60808201600082015161229360008501826121cf565b5060208201516122a660208501826121e8565b5060408201516122b9604085018261225f565b5060608201516122cc606085018261226e565b50505050565b6122db8161213a565b82525050565b60008115159050919050565b6122f6816122e1565b82525050565b6003811061230d5761230c6121f7565b5b50565b600081905061231e826122fc565b919050565b600061232e82612310565b9050919050565b61233e81612323565b82525050565b60006101a08201905061235a600083018a61227d565b612367608083018961227d565b6123756101008301886122d2565b6123836101208301876122d2565b6123916101408301866122d2565b61239f6101608301856122ed565b6123ad610180830184612335565b98975050505050505050565b6123c2816121de565b81146123cd57600080fd5b50565b6000813590506123df816123b9565b92915050565b600080604083850312156123fc576123fb612130565b5b600061240a8582860161215b565b925050602061241b858286016123d0565b9150509250929050565b600060208201905061243a60008301846122d2565b92915050565b600061244b8261219d565b9050919050565b61245b81612440565b82525050565b60006020820190506124766000830184612452565b92915050565b61248581612440565b811461249057600080fd5b50565b6000813590506124a28161247c565b92915050565b6000602082840312156124be576124bd612130565b5b60006124cc84828501612493565b91505092915050565b600481106124e257600080fd5b50565b6000813590506124f4816124d5565b92915050565b600080fd5b600080fd5b6000601f19601f8301169050919050565b7f4e487b7100000000000000000000000000000000000000000000000000000000600052604160045260246000fd5b61254d82612504565b810181811067ffffffffffffffff8211171561256c5761256b612515565b5b80604052505050565b600061257f612126565b905061258b8282612544565b919050565b600067ffffffffffffffff8211156125ab576125aa612515565b5b6125b482612504565b9050602081019050919050565b82818337600083830152505050565b60006125e36125de84612590565b612575565b9050828152602081018484840111156125ff576125fe6124ff565b5b61260a8482856125c1565b509392505050565b600082601f830112612627576126266124fa565b5b81356126378482602086016125d0565b91505092915050565b60008060006060848603121561265957612658612130565b5b60006126678682870161215b565b9350506020612678868287016124e5565b925050604084013567ffffffffffffffff81111561269957612698612135565b5b6126a586828701612612565b9150509250925092565b600082825260208201905092915050565b7f47616d65206973206e6f74206163746976650000000000000000000000000000600082015250565b60006126f66012836126af565b9150612701826126c0565b602082019050919050565b60006020820190508181036000830152612725816126e9565b9050919050565b7f47616d65206973206e6f7420616363657074696e67206d6f7665730000000000600082015250565b6000612762601b836126af565b915061276d8261272c565b602082019050919050565b6000602082019050818103600083015261279181612755565b9050919050565b7f4f6e6c7920706c617965727320696e207468652067616d652063616e20636f6d60008201527f6d6974206d6f7665730000000000000000000000000000000000000000000000602082015250565b60006127f46029836126af565b91506127ff82612798565b604082019050919050565b60006020820190508181036000830152612823816127e7565b9050919050565b7f4d6f766520616c726561647920636f6d6d697474656400000000000000000000600082015250565b60006128606016836126af565b915061286b8261282a565b602082019050919050565b6000602082019050818103600083015261288f81612853565b9050919050565b7f596f7520617265206e6f742070617274206f6620746869732067616d65000000600082015250565b60006128cc601d836126af565b91506128d782612896565b602082019050919050565b600060208201905081810360008301526128fb816128bf565b9050919050565b7f4e487b7100000000000000000000000000000000000000000000000000000000600052601160045260246000fd5b600061293c8261213a565b91506129478361213a565b925082820390508181111561295f5761295e612902565b5b92915050565b60006129708261213a565b91507fffffffffffffffffffffffffffffffffffffffffffffffffffffffffffffffff82036129a2576129a1612902565b5b600182019050919050565b6000819050919050565b6000819050919050565b60006129dc6129d76129d2846129ad565b6129b7565b61213a565b9050919050565b6129ec816129c1565b82525050565b6000602082019050612a0760008301846129e3565b92915050565b7f47616d65206973206e6f7420696e2072657665616c2070686173650000000000600082015250565b6000612a43601b836126af565b9150612a4e82612a0d565b602082019050919050565b60006020820190508181036000830152612a7281612a36565b9050919050565b7f4f6e6c7920706c617965727320696e207468652067616d652063616e2072657660008201527f65616c206d6f7665730000000000000000000000000000000000000000000000602082015250565b6000612ad56029836126af565b9150612ae082612a79565b604082019050919050565b60006020820190508181036000830152612b0481612ac8565b9050919050565b7f4d6f766520616c72656164792072657665616c65640000000000000000000000600082015250565b6000612b416015836126af565b9150612b4c82612b0b565b602082019050919050565b60006020820190508181036000830152612b7081612b34565b9050919050565b612b808161224d565b82525050565b600081519050919050565b60005b83811015612baf578082015181840152602081019050612b94565b60008484015250505050565b6000612bc682612b86565b612bd081856126af565b9350612be0818560208601612b91565b612be981612504565b840191505092915050565b6000604082019050612c096000830185612b77565b8181036020830152612c1b8184612bbb565b90509392505050565b6000612c2f8261213a565b9150612c3a8361213a565b9250828201905080821115612c5257612c51612902565b5b92915050565b7f496e76616c6964206d6f7665206f722073656372657400000000000000000000600082015250565b6000612c8e6016836126af565b9150612c9982612c58565b602082019050919050565b60006020820190508181036000830152612cbd81612c81565b9050919050565b6000602082019050612cd96000830184612b77565b92915050565b7f506c617965722031204d6f766500000000000000000000000000000000000000600082015250565b6000612d15600d836126af565b9150612d2082612cdf565b602082019050919050565b60006040820190508181036000830152612d4481612d08565b9050612d5360208301846122d2565b92915050565b7f496e76616c69642067616d654944000000000000000000000000000000000000600082015250565b6000612d8f600e836126af565b9150612d9a82612d59565b602082019050919050565b60006020820190508181036000830152612dbe81612d82565b9050919050565b7f596f752061726520616c726561647920696e20612067616d6521000000000000600082015250565b6000612dfb601a836126af565b9150612e0682612dc5565b602082019050919050565b60006020820190508181036000830152612e2a81612dee565b9050919050565b50565b6000612e416000836126af565b9150612e4c82612e31565b600082019050919050565b60006020820190508181036000830152612e7081612e34565b9050919050565b7f4d7573742073656e642045544820746f206a6f696e0000000000000000000000600082015250565b6000612ead6015836126af565b9150612eb882612e77565b602082019050919050565b60006020820190508181036000830152612edc81612ea0565b9050919050565b7f506c61796572312063616e6e6f74206a6f696e20616761696e00000000000000600082015250565b6000612f196019836126af565b9150612f2482612ee3565b602082019050919050565b60006020820190508181036000830152612f4881612f0c565b9050919050565b7f506c617965722032206d757374206d6174636820746865206265742100000000600082015250565b6000612f85601c836126af565b9150612f9082612f4f565b602082019050919050565b60006020820190508181036000830152612fb481612f78565b9050919050565b7f47616d6520616c7265616479206861732074776f20706c617965727300000000600082015250565b6000612ff1601c836126af565b9150612ffc82612fbb565b602082019050919050565b6000602082019050818103600083015261302081612fe4565b9050919050565b7f506c6179657231206d6f7665206e6f742072657665616c656400000000000000600082015250565b600061305d6019836126af565b915061306882613027565b602082019050919050565b6000602082019050818103600083015261308c81613050565b9050919050565b7f506c6179657232206d6f7665206e6f742072657665616c656400000000000000600082015250565b60006130c96019836126af565b91506130d482613093565b602082019050919050565b600060208201905081810360008301526130f8816130bc565b9050919050565b7f4e487b7100000000000000000000000000000000000000000000000000000000600052601260045260246000fd5b60006131398261213a565b91506131448361213a565b925082613154576131536130ff565b5b82820490509291505056fea26469706673582212201f40a2413772f051dc23beb194bcfe9f6b45660f0515c46edee76f1f474f5f5264736f6c63430008140033",
  "linkReferences": {},
  "deployedLinkReferences": {}
}