{
  "_format": "hh-sol-artifact-1",
  "contractName": "RockPaperScissors",
  "sourceName": "contracts/RPS.sol",
  "abi": [
    {
      "inputs": [],
      "stateMutability": "nonpayable",
      "type": "constructor"
    },
    {
      "inputs": [
        {
          "internalType": "uint256",
          "name": "value",
          "type": "uint256"
        },
        {
          "internalType": "uint256",
          "name": "length",
          "type": "uint256"
        }
      ],
      "name": "StringsInsufficientHexLength",
      "type": "error"
    },
    {
      "anonymous": false,
      "inputs": [
        {
          "indexed": true,
          "internalType": "uint256",
          "name": "gameId",
          "type": "uint256"
        },
        {
          "indexed": true,
          "internalType": "address",
          "name": "winner",
          "type": "address"
        },
        {
          "indexed": false,
          "internalType": "uint256",
          "name": "pot",
          "type": "uint256"
        }
      ],
      "name": "GameCompleted",
      "type": "event"
    },
    {
      "anonymous": false,
      "inputs": [
        {
          "indexed": true,
          "internalType": "uint256",
          "name": "gameId",
          "type": "uint256"
        },
        {
          "indexed": false,
          "internalType": "uint256",
          "name": "betAmount",
          "type": "uint256"
        }
      ],
      "name": "GameCreated",
      "type": "event"
    },
    {
      "anonymous": false,
      "inputs": [
        {
          "indexed": true,
          "internalType": "uint256",
          "name": "gameId",
          "type": "uint256"
        },
        {
          "indexed": true,
          "internalType": "address",
          "name": "player",
          "type": "address"
        },
        {
          "indexed": false,
          "internalType": "enum RockPaperScissors.Move",
          "name": "move",
          "type": "uint8"
        }
      ],
      "name": "MoveRevealed",
      "type": "event"
    },
    {
      "anonymous": false,
      "inputs": [
        {
          "indexed": true,
          "internalType": "uint256",
          "name": "gameId",
          "type": "uint256"
        },
        {
          "indexed": true,
          "internalType": "address",
          "name": "player",
          "type": "address"
        }
      ],
      "name": "MovesCommitted",
      "type": "event"
    },
    {
      "anonymous": false,
      "inputs": [
        {
          "indexed": true,
          "internalType": "uint256",
          "name": "gameId",
          "type": "uint256"
        },
        {
          "indexed": true,
          "internalType": "address",
          "name": "player",
          "type": "address"
        },
        {
          "indexed": false,
          "internalType": "bytes32",
          "name": "hashedMove",
          "type": "bytes32"
        },
        {
          "indexed": false,
          "internalType": "uint256",
          "name": "betAmount",
          "type": "uint256"
        }
      ],
      "name": "PlayerJoined",
      "type": "event"
    },
    {
      "inputs": [],
      "name": "createGame",
      "outputs": [
        {
          "internalType": "uint256",
          "name": "",
          "type": "uint256"
        }
      ],
      "stateMutability": "nonpayable",
      "type": "function"
    },
    {
      "inputs": [],
      "name": "gameCounter",
      "outputs": [
        {
          "internalType": "uint256",
          "name": "",
          "type": "uint256"
        }
      ],
      "stateMutability": "view",
      "type": "function"
    },
    {
      "inputs": [
        {
          "internalType": "uint256",
          "name": "",
          "type": "uint256"
        }
      ],
      "name": "games",
      "outputs": [
        {
          "components": [
            {
              "internalType": "address payable",
              "name": "addr",
              "type": "address"
            },
            {
              "internalType": "bytes32",
              "name": "hashedMove",
              "type": "bytes32"
            },
            {
              "internalType": "enum RockPaperScissors.Move",
              "name": "revealedMove",
              "type": "uint8"
            }
          ],
          "internalType": "struct RockPaperScissors.Player",
          "name": "player1",
          "type": "tuple"
        },
        {
          "components": [
            {
              "internalType": "address payable",
              "name": "addr",
              "type": "address"
            },
            {
              "internalType": "bytes32",
              "name": "hashedMove",
              "type": "bytes32"
            },
            {
              "internalType": "enum RockPaperScissors.Move",
              "name": "revealedMove",
              "type": "uint8"
            }
          ],
          "internalType": "struct RockPaperScissors.Player",
          "name": "player2",
          "type": "tuple"
        },
        {
          "internalType": "uint256",
          "name": "pot",
          "type": "uint256"
        },
        {
          "internalType": "enum RockPaperScissors.GameStatus",
          "name": "status",
          "type": "uint8"
        }
      ],
      "stateMutability": "view",
      "type": "function"
    },
    {
      "inputs": [
        {
          "internalType": "uint256",
          "name": "gameId",
          "type": "uint256"
        }
      ],
      "name": "getPlayerCount",
      "outputs": [
        {
          "internalType": "uint256",
          "name": "",
          "type": "uint256"
        }
      ],
      "stateMutability": "view",
      "type": "function"
    },
    {
      "inputs": [
        {
          "internalType": "uint256",
          "name": "gameId",
          "type": "uint256"
        },
        {
          "internalType": "bytes32",
          "name": "hashedMove",
          "type": "bytes32"
        }
      ],
      "name": "joinGame",
      "outputs": [],
      "stateMutability": "payable",
      "type": "function"
    },
    {
      "inputs": [],
      "name": "owner",
      "outputs": [
        {
          "internalType": "address",
          "name": "",
          "type": "address"
        }
      ],
      "stateMutability": "view",
      "type": "function"
    },
    {
      "inputs": [
        {
          "internalType": "uint256",
          "name": "gameId",
          "type": "uint256"
        },
        {
          "internalType": "enum RockPaperScissors.Move",
          "name": "move",
          "type": "uint8"
        },
        {
          "internalType": "string",
          "name": "secret",
          "type": "string"
        }
      ],
      "name": "revealMove",
      "outputs": [],
      "stateMutability": "nonpayable",
      "type": "function"
    }
  ],
  "bytecode": "0x608060405234801561001057600080fd5b50336000806101000a81548173ffffffffffffffffffffffffffffffffffffffff021916908373ffffffffffffffffffffffffffffffffffffffff16021790555061266a806100606000396000f3fe6080604052600436106100705760003560e01c80638da5cb5b1161004e5780638da5cb5b1461010b578063ab1205e914610136578063ac95267114610173578063bd675c0e1461018f57610070565b8063117a5b90146100755780632e0be39a146100b55780637255d729146100e0575b600080fd5b34801561008157600080fd5b5061009c6004803603810190610097919061180d565b6101b8565b6040516100ac94939291906119a4565b60405180910390f35b3480156100c157600080fd5b506100ca61033f565b6040516100d791906119ea565b60405180910390f35b3480156100ec57600080fd5b506100f5610345565b60405161010291906119ea565b60405180910390f35b34801561011757600080fd5b506101206103f3565b60405161012d9190611a26565b60405180910390f35b34801561014257600080fd5b5061015d6004803603810190610158919061180d565b610417565b60405161016a91906119ea565b60405180910390f35b61018d60048036038101906101889190611a6d565b61050e565b005b34801561019b57600080fd5b506101b660048036038101906101b19190611c18565b610a9e565b005b6001602052806000526040600020600091509050806000016040518060600160405290816000820160009054906101000a900473ffffffffffffffffffffffffffffffffffffffff1673ffffffffffffffffffffffffffffffffffffffff1673ffffffffffffffffffffffffffffffffffffffff168152602001600182015481526020016002820160009054906101000a900460ff1660038111156102605761025f611894565b5b600381111561027257610271611894565b5b8152505090806003016040518060600160405290816000820160009054906101000a900473ffffffffffffffffffffffffffffffffffffffff1673ffffffffffffffffffffffffffffffffffffffff1673ffffffffffffffffffffffffffffffffffffffff168152602001600182015481526020016002820160009054906101000a900460ff16600381111561030b5761030a611894565b5b600381111561031d5761031c611894565b5b81525050908060060154908060070160009054906101000a900460ff16905084565b60025481565b60006002600081548092919061035a90611cb6565b9190505550600060016000600254815260200190815260200160002090506000816006018190555060008160070160006101000a81548160ff021916908360028111156103aa576103a9611894565b5b02179055506002547fa26856d25e558c79e1632806bc6824075cf59885a115825f2aab62385a3f714260006040516103e29190611d43565b60405180910390a260025491505090565b60008054906101000a900473ffffffffffffffffffffffffffffffffffffffff1681565b60008060016000848152602001908152602001600020905060008073ffffffffffffffffffffffffffffffffffffffff168260000160000160009054906101000a900473ffffffffffffffffffffffffffffffffffffffff1673ffffffffffffffffffffffffffffffffffffffff161461049a57808061049690611cb6565b9150505b600073ffffffffffffffffffffffffffffffffffffffff168260030160000160009054906101000a900473ffffffffffffffffffffffffffffffffffffffff1673ffffffffffffffffffffffffffffffffffffffff161461050457808061050090611cb6565b9150505b8092505050919050565b60006001600084815260200190815260200160002090506000600281111561053957610538611894565b5b8160070160009054906101000a900460ff16600281111561055d5761055c611894565b5b1461059d576040517f08c379a000000000000000000000000000000000000000000000000000000000815260040161059490611dbb565b60405180910390fd5b600034116105e0576040517f08c379a00000000000000000000000000000000000000000000000000000000081526004016105d790611e4d565b60405180910390fd5b6000801b8203610625576040517f08c379a000000000000000000000000000000000000000000000000000000000815260040161061c90611eb9565b60405180910390fd5b600073ffffffffffffffffffffffffffffffffffffffff168160000160000160009054906101000a900473ffffffffffffffffffffffffffffffffffffffff1673ffffffffffffffffffffffffffffffffffffffff16036107bd5760405180606001604052803373ffffffffffffffffffffffffffffffffffffffff168152602001838152602001600060038111156106c1576106c0611894565b5b8152508160000160008201518160000160006101000a81548173ffffffffffffffffffffffffffffffffffffffff021916908373ffffffffffffffffffffffffffffffffffffffff1602179055506020820151816001015560408201518160020160006101000a81548160ff0219169083600381111561074457610743611894565b5b0217905550905050348160060160008282546107609190611ed9565b925050819055503373ffffffffffffffffffffffffffffffffffffffff16837fd826f4cc80cfde6f48022a9adba79036570c3ed647c939a6a619b95d05e5b84b84346040516107b0929190611f1c565b60405180910390a3610a99565b600073ffffffffffffffffffffffffffffffffffffffff168160030160000160009054906101000a900473ffffffffffffffffffffffffffffffffffffffff1673ffffffffffffffffffffffffffffffffffffffff1603610a5d578060000160000160009054906101000a900473ffffffffffffffffffffffffffffffffffffffff1673ffffffffffffffffffffffffffffffffffffffff163373ffffffffffffffffffffffffffffffffffffffff16036108ad576040517f08c379a00000000000000000000000000000000000000000000000000000000081526004016108a490611f91565b60405180910390fd5b806006015434146108f3576040517f08c379a00000000000000000000000000000000000000000000000000000000081526004016108ea90612023565b60405180910390fd5b60405180606001604052803373ffffffffffffffffffffffffffffffffffffffff1681526020018381526020016000600381111561093457610933611894565b5b8152508160030160008201518160000160006101000a81548173ffffffffffffffffffffffffffffffffffffffff021916908373ffffffffffffffffffffffffffffffffffffffff1602179055506020820151816001015560408201518160020160006101000a81548160ff021916908360038111156109b7576109b6611894565b5b0217905550905050348160060160008282546109d39190611ed9565b9250508190555060018160070160006101000a81548160ff02191690836002811115610a0257610a01611894565b5b02179055503373ffffffffffffffffffffffffffffffffffffffff16837fd826f4cc80cfde6f48022a9adba79036570c3ed647c939a6a619b95d05e5b84b8434604051610a50929190611f1c565b60405180910390a3610a98565b6040517f08c379a0000000000000000000000000000000000000000000000000000000008152600401610a8f9061208f565b60405180910390fd5b5b505050565b600060016000858152602001908152602001600020905060016002811115610ac957610ac8611894565b5b8160070160009054906101000a900460ff166002811115610aed57610aec611894565b5b14610b2d576040517f08c379a0000000000000000000000000000000000000000000000000000000008152600401610b24906120fb565b60405180910390fd5b60006003811115610b4157610b40611894565b5b836003811115610b5457610b53611894565b5b03610b94576040517f08c379a0000000000000000000000000000000000000000000000000000000008152600401610b8b90612167565b60405180910390fd5b8060000160000160009054906101000a900473ffffffffffffffffffffffffffffffffffffffff1673ffffffffffffffffffffffffffffffffffffffff163373ffffffffffffffffffffffffffffffffffffffff161480610c4757508060030160000160009054906101000a900473ffffffffffffffffffffffffffffffffffffffff1673ffffffffffffffffffffffffffffffffffffffff163373ffffffffffffffffffffffffffffffffffffffff16145b610c86576040517f08c379a0000000000000000000000000000000000000000000000000000000008152600401610c7d906121f9565b60405180910390fd5b60008160000160000160009054906101000a900473ffffffffffffffffffffffffffffffffffffffff1673ffffffffffffffffffffffffffffffffffffffff163373ffffffffffffffffffffffffffffffffffffffff1614610ceb5781600301610cf0565b816000015b905060006003811115610d0657610d05611894565b5b8160020160009054906101000a900460ff166003811115610d2a57610d29611894565b5b14610d6a576040517f08c379a0000000000000000000000000000000000000000000000000000000008152600401610d6190612265565b60405180910390fd5b60008484604051602001610d7f929190612302565b60405160208183030381529060405280519060200120905081600101548114610dae836001015460001c610f30565b610dba8360001c610f30565b604051602001610dcb9291906123ba565b60405160208183030381529060405290610e1b576040517f08c379a0000000000000000000000000000000000000000000000000000000008152600401610e1291906123fc565b60405180910390fd5b50848260020160006101000a81548160ff02191690836003811115610e4357610e42611894565b5b02179055503373ffffffffffffffffffffffffffffffffffffffff16867fdd17665bf97c2a169e97f4f62f36023bf40807eb797a922864394a910d5c37c887604051610e8f919061241e565b60405180910390a360006003811115610eab57610eaa611894565b5b8360000160020160009054906101000a900460ff166003811115610ed257610ed1611894565b5b14158015610f19575060006003811115610eef57610eee611894565b5b8360030160020160009054906101000a900460ff166003811115610f1657610f15611894565b5b14155b15610f2857610f2786610f4e565b5b505050505050565b6060610f47826001610f41856114b8565b01611571565b9050919050565b600060016000838152602001908152602001600020905060006003811115610f7957610f78611894565b5b8160000160020160009054906101000a900460ff166003811115610fa057610f9f611894565b5b03610fe0576040517f08c379a0000000000000000000000000000000000000000000000000000000008152600401610fd790612485565b60405180910390fd5b60006003811115610ff457610ff3611894565b5b8160030160020160009054906101000a900460ff16600381111561101b5761101a611894565b5b0361105b576040517f08c379a0000000000000000000000000000000000000000000000000000000008152600401611052906124f1565b60405180910390fd5b60008160030160020160009054906101000a900460ff16600381111561108457611083611894565b5b8260000160020160009054906101000a900460ff1660038111156110ab576110aa611894565b5b036111b1578160000160000160009054906101000a900473ffffffffffffffffffffffffffffffffffffffff1673ffffffffffffffffffffffffffffffffffffffff166108fc600284600601546111029190612540565b9081150290604051600060405180830381858888f1935050505015801561112d573d6000803e3d6000fd5b508160030160000160009054906101000a900473ffffffffffffffffffffffffffffffffffffffff1673ffffffffffffffffffffffffffffffffffffffff166108fc600284600601546111809190612540565b9081150290604051600060405180830381858888f193505050501580156111ab573d6000803e3d6000fd5b50611433565b600160038111156111c5576111c4611894565b5b8260000160020160009054906101000a900460ff1660038111156111ec576111eb611894565b5b148015611230575060038081111561120757611206611894565b5b8260030160020160009054906101000a900460ff16600381111561122e5761122d611894565b5b145b806112b6575060038081111561124957611248611894565b5b8260000160020160009054906101000a900460ff1660038111156112705761126f611894565b5b1480156112b557506002600381111561128c5761128b611894565b5b8260030160020160009054906101000a900460ff1660038111156112b3576112b2611894565b5b145b5b8061133d5750600260038111156112d0576112cf611894565b5b8260000160020160009054906101000a900460ff1660038111156112f7576112f6611894565b5b14801561133c57506001600381111561131357611312611894565b5b8260030160020160009054906101000a900460ff16600381111561133a57611339611894565b5b145b5b156113bc578160000160000160009054906101000a900473ffffffffffffffffffffffffffffffffffffffff1690508073ffffffffffffffffffffffffffffffffffffffff166108fc83600601549081150290604051600060405180830381858888f193505050501580156113b6573d6000803e3d6000fd5b50611432565b8160030160000160009054906101000a900473ffffffffffffffffffffffffffffffffffffffff1690508073ffffffffffffffffffffffffffffffffffffffff166108fc83600601549081150290604051600060405180830381858888f19350505050158015611430573d6000803e3d6000fd5b505b5b8073ffffffffffffffffffffffffffffffffffffffff16837ff6ae188cc6336ef5ad970d3c81cda5814b4c4902540924c6924debe94ece13eb846006015460405161147e91906119ea565b60405180910390a360028260070160006101000a81548160ff021916908360028111156114ae576114ad611894565b5b0217905550505050565b6000806000905060006114dc6fffffffffffffffffffffffffffffffff85116117b7565b90506080810284901c9350601081028201915061150267ffffffffffffffff85116117b7565b90506040810284901c9350600881028201915061152463ffffffff85116117b7565b90506020810284901c9350600481028201915061154461ffff85116117b7565b90506010810284901c9350600281028201915061156360ff85116117b7565b820191508192505050919050565b60606000839050600060028460026115899190612571565b6115939190611ed9565b67ffffffffffffffff8111156115ac576115ab611aed565b5b6040519080825280601f01601f1916602001820160405280156115de5781602001600182028036833780820191505090505b5090507f300000000000000000000000000000000000000000000000000000000000000081600081518110611616576116156125b3565b5b60200101907effffffffffffffffffffffffffffffffffffffffffffffffffffffffffffff1916908160001a9053507f78000000000000000000000000000000000000000000000000000000000000008160018151811061167a576116796125b3565b5b60200101907effffffffffffffffffffffffffffffffffffffffffffffffffffffffffffff1916908160001a905350600060018560026116ba9190612571565b6116c49190611ed9565b90505b6001811115611764577f3031323334353637383961626364656600000000000000000000000000000000600f841660108110611706576117056125b3565b5b1a60f81b82828151811061171d5761171c6125b3565b5b60200101907effffffffffffffffffffffffffffffffffffffffffffffffffffffffffffff1916908160001a905350600483901c92508061175d906125e2565b90506116c7565b50600082146117ac5784846040517fe22e27eb0000000000000000000000000000000000000000000000000000000081526004016117a392919061260b565b60405180910390fd5b809250505092915050565b60008115159050919050565b6000604051905090565b600080fd5b600080fd5b6000819050919050565b6117ea816117d7565b81146117f557600080fd5b50565b600081359050611807816117e1565b92915050565b600060208284031215611823576118226117cd565b5b6000611831848285016117f8565b91505092915050565b600073ffffffffffffffffffffffffffffffffffffffff82169050919050565b60006118658261183a565b9050919050565b6118758161185a565b82525050565b6000819050919050565b61188e8161187b565b82525050565b7f4e487b7100000000000000000000000000000000000000000000000000000000600052602160045260246000fd5b600481106118d4576118d3611894565b5b50565b60008190506118e5826118c3565b919050565b60006118f5826118d7565b9050919050565b611905816118ea565b82525050565b606082016000820151611921600085018261186c565b5060208201516119346020850182611885565b50604082015161194760408501826118fc565b50505050565b611956816117d7565b82525050565b6003811061196d5761196c611894565b5b50565b600081905061197e8261195c565b919050565b600061198e82611970565b9050919050565b61199e81611983565b82525050565b6000610100820190506119ba600083018761190b565b6119c7606083018661190b565b6119d460c083018561194d565b6119e160e0830184611995565b95945050505050565b60006020820190506119ff600083018461194d565b92915050565b6000611a108261183a565b9050919050565b611a2081611a05565b82525050565b6000602082019050611a3b6000830184611a17565b92915050565b611a4a8161187b565b8114611a5557600080fd5b50565b600081359050611a6781611a41565b92915050565b60008060408385031215611a8457611a836117cd565b5b6000611a92858286016117f8565b9250506020611aa385828601611a58565b9150509250929050565b60048110611aba57600080fd5b50565b600081359050611acc81611aad565b92915050565b600080fd5b600080fd5b6000601f19601f8301169050919050565b7f4e487b7100000000000000000000000000000000000000000000000000000000600052604160045260246000fd5b611b2582611adc565b810181811067ffffffffffffffff82111715611b4457611b43611aed565b5b80604052505050565b6000611b576117c3565b9050611b638282611b1c565b919050565b600067ffffffffffffffff821115611b8357611b82611aed565b5b611b8c82611adc565b9050602081019050919050565b82818337600083830152505050565b6000611bbb611bb684611b68565b611b4d565b905082815260208101848484011115611bd757611bd6611ad7565b5b611be2848285611b99565b509392505050565b600082601f830112611bff57611bfe611ad2565b5b8135611c0f848260208601611ba8565b91505092915050565b600080600060608486031215611c3157611c306117cd565b5b6000611c3f868287016117f8565b9350506020611c5086828701611abd565b925050604084013567ffffffffffffffff811115611c7157611c706117d2565b5b611c7d86828701611bea565b9150509250925092565b7f4e487b7100000000000000000000000000000000000000000000000000000000600052601160045260246000fd5b6000611cc1826117d7565b91507fffffffffffffffffffffffffffffffffffffffffffffffffffffffffffffffff8203611cf357611cf2611c87565b5b600182019050919050565b6000819050919050565b6000819050919050565b6000611d2d611d28611d2384611cfe565b611d08565b6117d7565b9050919050565b611d3d81611d12565b82525050565b6000602082019050611d586000830184611d34565b92915050565b600082825260208201905092915050565b7f47616d65206973206e6f742077616974696e6720666f7220706c617965727300600082015250565b6000611da5601f83611d5e565b9150611db082611d6f565b602082019050919050565b60006020820190508181036000830152611dd481611d98565b9050919050565b7f42657420616d6f756e74206d7573742062652067726561746572207468616e2060008201527f3000000000000000000000000000000000000000000000000000000000000000602082015250565b6000611e37602183611d5e565b9150611e4282611ddb565b604082019050919050565b60006020820190508181036000830152611e6681611e2a565b9050919050565b7f486173686564206d6f7665206973207265717569726564000000000000000000600082015250565b6000611ea3601783611d5e565b9150611eae82611e6d565b602082019050919050565b60006020820190508181036000830152611ed281611e96565b9050919050565b6000611ee4826117d7565b9150611eef836117d7565b9250828201905080821115611f0757611f06611c87565b5b92915050565b611f168161187b565b82525050565b6000604082019050611f316000830185611f0d565b611f3e602083018461194d565b9392505050565b7f506c61796572312063616e6e6f74206a6f696e20616761696e00000000000000600082015250565b6000611f7b601983611d5e565b9150611f8682611f45565b602082019050919050565b60006020820190508181036000830152611faa81611f6e565b9050919050565b7f42657420616d6f756e74206d757374206d6174636820506c617965723127732060008201527f6265740000000000000000000000000000000000000000000000000000000000602082015250565b600061200d602383611d5e565b915061201882611fb1565b604082019050919050565b6000602082019050818103600083015261203c81612000565b9050919050565b7f47616d6520616c7265616479206861732074776f20706c617965727300000000600082015250565b6000612079601c83611d5e565b915061208482612043565b602082019050919050565b600060208201905081810360008301526120a88161206c565b9050919050565b7f47616d65206973206e6f7420696e2072657665616c2070686173650000000000600082015250565b60006120e5601b83611d5e565b91506120f0826120af565b602082019050919050565b60006020820190508181036000830152612114816120d8565b9050919050565b7f496e76616c6964206d6f76650000000000000000000000000000000000000000600082015250565b6000612151600c83611d5e565b915061215c8261211b565b602082019050919050565b6000602082019050818103600083015261218081612144565b9050919050565b7f4f6e6c792067616d65207061727469636970616e74732063616e20726576656160008201527f6c206d6f76657300000000000000000000000000000000000000000000000000602082015250565b60006121e3602783611d5e565b91506121ee82612187565b604082019050919050565b60006020820190508181036000830152612212816121d6565b9050919050565b7f4d6f766520616c72656164792072657665616c65640000000000000000000000600082015250565b600061224f601583611d5e565b915061225a82612219565b602082019050919050565b6000602082019050818103600083015261227e81612242565b9050919050565b61228e816118ea565b82525050565b600081519050919050565b60005b838110156122bd5780820151818401526020810190506122a2565b60008484015250505050565b60006122d482612294565b6122de8185611d5e565b93506122ee81856020860161229f565b6122f781611adc565b840191505092915050565b60006040820190506123176000830185612285565b818103602083015261232981846122c9565b90509392505050565b7f4d6f766520646f6573206e6f74206d617463682e2045787065637465643a2000815250565b600081905092915050565b600061236e82612294565b6123788185612358565b935061238881856020860161229f565b80840191505092915050565b7f20476f743a200000000000000000000000000000000000000000000000000000815250565b60006123c582612332565b601f820191506123d58285612363565b91506123e082612394565b6006820191506123f08284612363565b91508190509392505050565b6000602082019050818103600083015261241681846122c9565b905092915050565b60006020820190506124336000830184612285565b92915050565b7f506c6179657231206d6f7665206e6f742072657665616c656400000000000000600082015250565b600061246f601983611d5e565b915061247a82612439565b602082019050919050565b6000602082019050818103600083015261249e81612462565b9050919050565b7f506c6179657232206d6f7665206e6f742072657665616c656400000000000000600082015250565b60006124db601983611d5e565b91506124e6826124a5565b602082019050919050565b6000602082019050818103600083015261250a816124ce565b9050919050565b7f4e487b7100000000000000000000000000000000000000000000000000000000600052601260045260246000fd5b600061254b826117d7565b9150612556836117d7565b92508261256657612565612511565b5b828204905092915050565b600061257c826117d7565b9150612587836117d7565b9250828202612595816117d7565b915082820484148315176125ac576125ab611c87565b5b5092915050565b7f4e487b7100000000000000000000000000000000000000000000000000000000600052603260045260246000fd5b60006125ed826117d7565b915060008203612600576125ff611c87565b5b600182039050919050565b6000604082019050612620600083018561194d565b61262d602083018461194d565b939250505056fea264697066735822122004d80d258612848c652ce87dad3b3e8b03e6f6d627654a378db78f2a2b065da964736f6c63430008140033",
  "linkReferences": {},
  "deployedLinkReferences": {}
}