{
  "_format": "hh-sol-artifact-1",
  "contractName": "RockPaperScissors",
  "sourceName": "contracts/RPS.sol",
  "abi": [
    {
      "inputs": [],
      "stateMutability": "nonpayable",
      "type": "constructor"
    },
    {
      "anonymous": false,
      "inputs": [
        {
          "indexed": true,
          "internalType": "uint256",
          "name": "gameId",
          "type": "uint256"
        },
        {
          "indexed": true,
          "internalType": "address",
          "name": "winner",
          "type": "address"
        },
        {
          "indexed": false,
          "internalType": "uint256",
          "name": "pot",
          "type": "uint256"
        }
      ],
      "name": "GameCompleted",
      "type": "event"
    },
    {
      "anonymous": false,
      "inputs": [
        {
          "indexed": true,
          "internalType": "uint256",
          "name": "gameId",
          "type": "uint256"
        },
        {
          "indexed": false,
          "internalType": "uint256",
          "name": "betAmount",
          "type": "uint256"
        }
      ],
      "name": "GameCreated",
      "type": "event"
    },
    {
      "anonymous": false,
      "inputs": [
        {
          "indexed": true,
          "internalType": "uint256",
          "name": "gameId",
          "type": "uint256"
        },
        {
          "indexed": true,
          "internalType": "address",
          "name": "player",
          "type": "address"
        }
      ],
      "name": "MovesCommitted",
      "type": "event"
    },
    {
      "anonymous": false,
      "inputs": [
        {
          "indexed": true,
          "internalType": "uint256",
          "name": "gameId",
          "type": "uint256"
        },
        {
          "indexed": true,
          "internalType": "address",
          "name": "player",
          "type": "address"
        },
        {
          "indexed": false,
          "internalType": "enum RockPaperScissors.Move",
          "name": "move",
          "type": "uint8"
        }
      ],
      "name": "MovesRevealed",
      "type": "event"
    },
    {
      "anonymous": false,
      "inputs": [
        {
          "indexed": true,
          "internalType": "uint256",
          "name": "gameId",
          "type": "uint256"
        },
        {
          "indexed": true,
          "internalType": "address",
          "name": "player",
          "type": "address"
        }
      ],
      "name": "PlayerJoined",
      "type": "event"
    },
    {
      "inputs": [
        {
          "internalType": "bytes32",
          "name": "hashedMove",
          "type": "bytes32"
        }
      ],
      "name": "createGame",
      "outputs": [
        {
          "internalType": "uint256",
          "name": "",
          "type": "uint256"
        }
      ],
      "stateMutability": "payable",
      "type": "function"
    },
    {
      "inputs": [],
      "name": "gameCounter",
      "outputs": [
        {
          "internalType": "uint256",
          "name": "",
          "type": "uint256"
        }
      ],
      "stateMutability": "view",
      "type": "function"
    },
    {
      "inputs": [
        {
          "internalType": "uint256",
          "name": "",
          "type": "uint256"
        }
      ],
      "name": "games",
      "outputs": [
        {
          "components": [
            {
              "internalType": "address payable",
              "name": "addr",
              "type": "address"
            },
            {
              "internalType": "bytes32",
              "name": "hashedMove",
              "type": "bytes32"
            },
            {
              "internalType": "enum RockPaperScissors.Move",
              "name": "revealedMove",
              "type": "uint8"
            }
          ],
          "internalType": "struct RockPaperScissors.Player",
          "name": "player1",
          "type": "tuple"
        },
        {
          "components": [
            {
              "internalType": "address payable",
              "name": "addr",
              "type": "address"
            },
            {
              "internalType": "bytes32",
              "name": "hashedMove",
              "type": "bytes32"
            },
            {
              "internalType": "enum RockPaperScissors.Move",
              "name": "revealedMove",
              "type": "uint8"
            }
          ],
          "internalType": "struct RockPaperScissors.Player",
          "name": "player2",
          "type": "tuple"
        },
        {
          "internalType": "uint256",
          "name": "pot",
          "type": "uint256"
        },
        {
          "internalType": "enum RockPaperScissors.GameStatus",
          "name": "status",
          "type": "uint8"
        }
      ],
      "stateMutability": "view",
      "type": "function"
    },
    {
      "inputs": [
        {
          "internalType": "uint256",
          "name": "gameId",
          "type": "uint256"
        },
        {
          "internalType": "bytes32",
          "name": "hashedMove",
          "type": "bytes32"
        }
      ],
      "name": "joinGame",
      "outputs": [],
      "stateMutability": "payable",
      "type": "function"
    },
    {
      "inputs": [],
      "name": "owner",
      "outputs": [
        {
          "internalType": "address",
          "name": "",
          "type": "address"
        }
      ],
      "stateMutability": "view",
      "type": "function"
    },
    {
      "inputs": [
        {
          "internalType": "uint256",
          "name": "gameId",
          "type": "uint256"
        },
        {
          "internalType": "enum RockPaperScissors.Move",
          "name": "move",
          "type": "uint8"
        },
        {
          "internalType": "string",
          "name": "secret",
          "type": "string"
        }
      ],
      "name": "revealMove",
      "outputs": [],
      "stateMutability": "nonpayable",
      "type": "function"
    }
  ],
  "bytecode": "0x6080604052348015600f57600080fd5b50336000806101000a81548173ffffffffffffffffffffffffffffffffffffffff021916908373ffffffffffffffffffffffffffffffffffffffff160217905550611e2f8061005f6000396000f3fe6080604052600436106100555760003560e01c8063117a5b901461005a5780632e0be39a1461009a578063457391e5146100c55780638da5cb5b146100f5578063ac95267114610120578063bd675c0e1461013c575b600080fd5b34801561006657600080fd5b50610081600480360381019061007c9190611175565b610165565b604051610091949392919061130c565b60405180910390f35b3480156100a657600080fd5b506100af6102ec565b6040516100bc9190611352565b60405180910390f35b6100df60048036038101906100da9190611399565b6102f2565b6040516100ec9190611352565b60405180910390f35b34801561010157600080fd5b5061010a610427565b60405161011791906113e7565b60405180910390f35b61013a60048036038101906101359190611402565b61044b565b005b34801561014857600080fd5b50610163600480360381019061015e91906115ad565b6107b9565b005b6001602052806000526040600020600091509050806000016040518060600160405290816000820160009054906101000a900473ffffffffffffffffffffffffffffffffffffffff1673ffffffffffffffffffffffffffffffffffffffff1673ffffffffffffffffffffffffffffffffffffffff168152602001600182015481526020016002820160009054906101000a900460ff16600381111561020d5761020c6111fc565b5b600381111561021f5761021e6111fc565b5b8152505090806003016040518060600160405290816000820160009054906101000a900473ffffffffffffffffffffffffffffffffffffffff1673ffffffffffffffffffffffffffffffffffffffff1673ffffffffffffffffffffffffffffffffffffffff168152602001600182015481526020016002820160009054906101000a900460ff1660038111156102b8576102b76111fc565b5b60038111156102ca576102c96111fc565b5b81525050908060060154908060070160009054906101000a900460ff16905084565b60025481565b6000803411610336576040517f08c379a000000000000000000000000000000000000000000000000000000000815260040161032d9061169f565b60405180910390fd5b6000801b820361037b576040517f08c379a00000000000000000000000000000000000000000000000000000000081526004016103729061170b565b60405180910390fd5b6002600081548092919061038e9061175a565b91905055506000600160006002548152602001908152602001600020905034816006018190555060008160070160006101000a81548160ff021916908360028111156103dd576103dc6111fc565b5b02179055506002547fa26856d25e558c79e1632806bc6824075cf59885a115825f2aab62385a3f7142346040516104149190611352565b60405180910390a2600254915050919050565b60008054906101000a900473ffffffffffffffffffffffffffffffffffffffff1681565b600060016000848152602001908152602001600020905060006002811115610476576104756111fc565b5b8160070160009054906101000a900460ff16600281111561049a576104996111fc565b5b146104da576040517f08c379a00000000000000000000000000000000000000000000000000000000081526004016104d1906117ee565b60405180910390fd5b80600601543414610520576040517f08c379a00000000000000000000000000000000000000000000000000000000081526004016105179061185a565b60405180910390fd5b6000801b8203610565576040517f08c379a000000000000000000000000000000000000000000000000000000000815260040161055c906118c6565b60405180910390fd5b600073ffffffffffffffffffffffffffffffffffffffff168160000160000160009054906101000a900473ffffffffffffffffffffffffffffffffffffffff1673ffffffffffffffffffffffffffffffffffffffff16036106915760405180606001604052803373ffffffffffffffffffffffffffffffffffffffff16815260200183815260200160006003811115610601576106006111fc565b5b8152508160000160008201518160000160006101000a81548173ffffffffffffffffffffffffffffffffffffffff021916908373ffffffffffffffffffffffffffffffffffffffff1602179055506020820151816001015560408201518160020160006101000a81548160ff02191690836003811115610684576106836111fc565b5b0217905550905050610770565b600073ffffffffffffffffffffffffffffffffffffffff168160030160000160009054906101000a900473ffffffffffffffffffffffffffffffffffffffff1673ffffffffffffffffffffffffffffffffffffffff1614610727576040517f08c379a000000000000000000000000000000000000000000000000000000000815260040161071e90611932565b60405180910390fd5b3481600601600082825461073b9190611952565b9250508190555060018160070160006101000a81548160ff0219169083600281111561076a576107696111fc565b5b02179055505b3373ffffffffffffffffffffffffffffffffffffffff16837f87969bc7faf902221a147b95ceba76e011c5efb0339a0a8ee7a2bb82d9cfbbd660405160405180910390a3505050565b6000600160008581526020019081526020016000209050600160028111156107e4576107e36111fc565b5b8160070160009054906101000a900460ff166002811115610808576108076111fc565b5b14610848576040517f08c379a000000000000000000000000000000000000000000000000000000000815260040161083f906119d2565b60405180910390fd5b6000600381111561085c5761085b6111fc565b5b83600381111561086f5761086e6111fc565b5b036108af576040517f08c379a00000000000000000000000000000000000000000000000000000000081526004016108a690611a3e565b60405180910390fd5b8060000160000160009054906101000a900473ffffffffffffffffffffffffffffffffffffffff1673ffffffffffffffffffffffffffffffffffffffff163373ffffffffffffffffffffffffffffffffffffffff16148061096257508060030160000160009054906101000a900473ffffffffffffffffffffffffffffffffffffffff1673ffffffffffffffffffffffffffffffffffffffff163373ffffffffffffffffffffffffffffffffffffffff16145b6109a1576040517f08c379a000000000000000000000000000000000000000000000000000000000815260040161099890611ad0565b60405180910390fd5b60008160000160000160009054906101000a900473ffffffffffffffffffffffffffffffffffffffff1673ffffffffffffffffffffffffffffffffffffffff163373ffffffffffffffffffffffffffffffffffffffff1614610a065781600301610a0b565b816000015b905060006003811115610a2157610a206111fc565b5b8160020160009054906101000a900460ff166003811115610a4557610a446111fc565b5b14610a85576040517f08c379a0000000000000000000000000000000000000000000000000000000008152600401610a7c90611b3c565b60405180910390fd5b80600101548484604051602001610a9d929190611c03565b6040516020818303038152906040528051906020012014610af3576040517f08c379a0000000000000000000000000000000000000000000000000000000008152600401610aea90611c77565b60405180910390fd5b838160020160006101000a81548160ff02191690836003811115610b1a57610b196111fc565b5b02179055503373ffffffffffffffffffffffffffffffffffffffff16857f4c6863cbb59d527599b35f98e32cbcef866771055de63001e0905cfeb94bc43c86604051610b669190611ca6565b60405180910390a360006003811115610b8257610b816111fc565b5b8260000160020160009054906101000a900460ff166003811115610ba957610ba86111fc565b5b14158015610bf0575060006003811115610bc657610bc56111fc565b5b8260030160020160009054906101000a900460ff166003811115610bed57610bec6111fc565b5b14155b15610bff57610bfe85610c06565b5b5050505050565b600060016000838152602001908152602001600020905060006003811115610c3157610c306111fc565b5b8160000160020160009054906101000a900460ff166003811115610c5857610c576111fc565b5b03610c98576040517f08c379a0000000000000000000000000000000000000000000000000000000008152600401610c8f90611d0d565b60405180910390fd5b60006003811115610cac57610cab6111fc565b5b8160030160020160009054906101000a900460ff166003811115610cd357610cd26111fc565b5b03610d13576040517f08c379a0000000000000000000000000000000000000000000000000000000008152600401610d0a90611d79565b60405180910390fd5b60008160030160020160009054906101000a900460ff166003811115610d3c57610d3b6111fc565b5b8260000160020160009054906101000a900460ff166003811115610d6357610d626111fc565b5b03610e69578160000160000160009054906101000a900473ffffffffffffffffffffffffffffffffffffffff1673ffffffffffffffffffffffffffffffffffffffff166108fc60028460060154610dba9190611dc8565b9081150290604051600060405180830381858888f19350505050158015610de5573d6000803e3d6000fd5b508160030160000160009054906101000a900473ffffffffffffffffffffffffffffffffffffffff1673ffffffffffffffffffffffffffffffffffffffff166108fc60028460060154610e389190611dc8565b9081150290604051600060405180830381858888f19350505050158015610e63573d6000803e3d6000fd5b50611026565b60016003811115610e7d57610e7c6111fc565b5b8260000160020160009054906101000a900460ff166003811115610ea457610ea36111fc565b5b148015610ee85750600380811115610ebf57610ebe6111fc565b5b8260030160020160009054906101000a900460ff166003811115610ee657610ee56111fc565b5b145b80610f6e5750600380811115610f0157610f006111fc565b5b8260000160020160009054906101000a900460ff166003811115610f2857610f276111fc565b5b148015610f6d575060026003811115610f4457610f436111fc565b5b8260030160020160009054906101000a900460ff166003811115610f6b57610f6a6111fc565b5b145b5b80610ff5575060026003811115610f8857610f876111fc565b5b8260000160020160009054906101000a900460ff166003811115610faf57610fae6111fc565b5b148015610ff4575060016003811115610fcb57610fca6111fc565b5b8260030160020160009054906101000a900460ff166003811115610ff257610ff16111fc565b5b145b5b15611025578160000160000160009054906101000a900473ffffffffffffffffffffffffffffffffffffffff1690505b5b600073ffffffffffffffffffffffffffffffffffffffff168173ffffffffffffffffffffffffffffffffffffffff16146110f9578073ffffffffffffffffffffffffffffffffffffffff166108fc83600601549081150290604051600060405180830381858888f193505050501580156110a4573d6000803e3d6000fd5b508073ffffffffffffffffffffffffffffffffffffffff16837ff6ae188cc6336ef5ad970d3c81cda5814b4c4902540924c6924debe94ece13eb84600601546040516110f09190611352565b60405180910390a35b60028260070160006101000a81548160ff02191690836002811115611121576111206111fc565b5b0217905550505050565b6000604051905090565b600080fd5b600080fd5b6000819050919050565b6111528161113f565b811461115d57600080fd5b50565b60008135905061116f81611149565b92915050565b60006020828403121561118b5761118a611135565b5b600061119984828501611160565b91505092915050565b600073ffffffffffffffffffffffffffffffffffffffff82169050919050565b60006111cd826111a2565b9050919050565b6111dd816111c2565b82525050565b6000819050919050565b6111f6816111e3565b82525050565b7f4e487b7100000000000000000000000000000000000000000000000000000000600052602160045260246000fd5b6004811061123c5761123b6111fc565b5b50565b600081905061124d8261122b565b919050565b600061125d8261123f565b9050919050565b61126d81611252565b82525050565b60608201600082015161128960008501826111d4565b50602082015161129c60208501826111ed565b5060408201516112af6040850182611264565b50505050565b6112be8161113f565b82525050565b600381106112d5576112d46111fc565b5b50565b60008190506112e6826112c4565b919050565b60006112f6826112d8565b9050919050565b611306816112eb565b82525050565b6000610100820190506113226000830187611273565b61132f6060830186611273565b61133c60c08301856112b5565b61134960e08301846112fd565b95945050505050565b600060208201905061136760008301846112b5565b92915050565b611376816111e3565b811461138157600080fd5b50565b6000813590506113938161136d565b92915050565b6000602082840312156113af576113ae611135565b5b60006113bd84828501611384565b91505092915050565b60006113d1826111a2565b9050919050565b6113e1816113c6565b82525050565b60006020820190506113fc60008301846113d8565b92915050565b6000806040838503121561141957611418611135565b5b600061142785828601611160565b925050602061143885828601611384565b9150509250929050565b6004811061144f57600080fd5b50565b60008135905061146181611442565b92915050565b600080fd5b600080fd5b6000601f19601f8301169050919050565b7f4e487b7100000000000000000000000000000000000000000000000000000000600052604160045260246000fd5b6114ba82611471565b810181811067ffffffffffffffff821117156114d9576114d8611482565b5b80604052505050565b60006114ec61112b565b90506114f882826114b1565b919050565b600067ffffffffffffffff82111561151857611517611482565b5b61152182611471565b9050602081019050919050565b82818337600083830152505050565b600061155061154b846114fd565b6114e2565b90508281526020810184848401111561156c5761156b61146c565b5b61157784828561152e565b509392505050565b600082601f83011261159457611593611467565b5b81356115a484826020860161153d565b91505092915050565b6000806000606084860312156115c6576115c5611135565b5b60006115d486828701611160565b93505060206115e586828701611452565b925050604084013567ffffffffffffffff8111156116065761160561113a565b5b6116128682870161157f565b9150509250925092565b600082825260208201905092915050565b7f42657420616d6f756e74206d7573742062652067726561746572207468616e2060008201527f7a65726f00000000000000000000000000000000000000000000000000000000602082015250565b600061168960248361161c565b91506116948261162d565b604082019050919050565b600060208201905081810360008301526116b88161167c565b9050919050565b7f4d6f766520697320726571756972656400000000000000000000000000000000600082015250565b60006116f560108361161c565b9150611700826116bf565b602082019050919050565b60006020820190508181036000830152611724816116e8565b9050919050565b7f4e487b7100000000000000000000000000000000000000000000000000000000600052601160045260246000fd5b60006117658261113f565b91507fffffffffffffffffffffffffffffffffffffffffffffffffffffffffffffffff82036117975761179661172b565b5b600182019050919050565b7f47616d65206973206e6f742077616974696e6720666f7220706c617965727300600082015250565b60006117d8601f8361161c565b91506117e3826117a2565b602082019050919050565b60006020820190508181036000830152611807816117cb565b9050919050565b7f42657420616d6f756e74206d757374206d617463682074686520706f74000000600082015250565b6000611844601d8361161c565b915061184f8261180e565b602082019050919050565b6000602082019050818103600083015261187381611837565b9050919050565b7f486173686564206d6f7665206973207265717569726564000000000000000000600082015250565b60006118b060178361161c565b91506118bb8261187a565b602082019050919050565b600060208201905081810360008301526118df816118a3565b9050919050565b7f47616d6520416c7265616479206861732074776f20706c617965727300000000600082015250565b600061191c601c8361161c565b9150611927826118e6565b602082019050919050565b6000602082019050818103600083015261194b8161190f565b9050919050565b600061195d8261113f565b91506119688361113f565b92508282019050808211156119805761197f61172b565b5b92915050565b7f47616d65206973206e6f7420696e2072657665616c2070686173650000000000600082015250565b60006119bc601b8361161c565b91506119c782611986565b602082019050919050565b600060208201905081810360008301526119eb816119af565b9050919050565b7f496e76616c6964206d6f76650000000000000000000000000000000000000000600082015250565b6000611a28600c8361161c565b9150611a33826119f2565b602082019050919050565b60006020820190508181036000830152611a5781611a1b565b9050919050565b7f4f6e6c792067616d65207061727469636970616e74732063616e20726576656160008201527f6c206d6f76657300000000000000000000000000000000000000000000000000602082015250565b6000611aba60278361161c565b9150611ac582611a5e565b604082019050919050565b60006020820190508181036000830152611ae981611aad565b9050919050565b7f4d6f766520616c72656164792072657665616c65640000000000000000000000600082015250565b6000611b2660158361161c565b9150611b3182611af0565b602082019050919050565b60006020820190508181036000830152611b5581611b19565b9050919050565b60008160f81b9050919050565b6000611b7482611b5c565b9050919050565b611b8c611b8782611252565b611b69565b82525050565b600081519050919050565b600081905092915050565b60005b83811015611bc6578082015181840152602081019050611bab565b60008484015250505050565b6000611bdd82611b92565b611be78185611b9d565b9350611bf7818560208601611ba8565b80840191505092915050565b6000611c0f8285611b7b565b600182019150611c1f8284611bd2565b91508190509392505050565b7f4d6f766520646f6573206e6f74206d6174636800000000000000000000000000600082015250565b6000611c6160138361161c565b9150611c6c82611c2b565b602082019050919050565b60006020820190508181036000830152611c9081611c54565b9050919050565b611ca081611252565b82525050565b6000602082019050611cbb6000830184611c97565b92915050565b7f506c6179657231206d6f7665206e6f742072657665616c656400000000000000600082015250565b6000611cf760198361161c565b9150611d0282611cc1565b602082019050919050565b60006020820190508181036000830152611d2681611cea565b9050919050565b7f506c6179657232206d6f7665206e6f742072657665616c656400000000000000600082015250565b6000611d6360198361161c565b9150611d6e82611d2d565b602082019050919050565b60006020820190508181036000830152611d9281611d56565b9050919050565b7f4e487b7100000000000000000000000000000000000000000000000000000000600052601260045260246000fd5b6000611dd38261113f565b9150611dde8361113f565b925082611dee57611ded611d99565b5b82820490509291505056fea2646970667358221220586b3a14c2c68f68b56e801ce95acca4d714b17f74dda6794ec410b06ed7ead164736f6c634300081c0033",
  "linkReferences": {},
  "deployedLinkReferences": {}
}