{
  "_format": "hh-sol-artifact-1",
  "contractName": "RockPaperScissors",
  "sourceName": "contracts/RPS.sol",
  "abi": [
    {
      "inputs": [],
      "stateMutability": "nonpayable",
      "type": "constructor"
    },
    {
      "anonymous": false,
      "inputs": [
        {
          "indexed": true,
          "internalType": "uint256",
          "name": "gameId",
          "type": "uint256"
        },
        {
          "indexed": true,
          "internalType": "address",
          "name": "winner",
          "type": "address"
        },
        {
          "indexed": false,
          "internalType": "uint256",
          "name": "pot",
          "type": "uint256"
        }
      ],
      "name": "GameCompleted",
      "type": "event"
    },
    {
      "anonymous": false,
      "inputs": [
        {
          "indexed": true,
          "internalType": "uint256",
          "name": "gameId",
          "type": "uint256"
        },
        {
          "indexed": false,
          "internalType": "uint256",
          "name": "betAmount",
          "type": "uint256"
        }
      ],
      "name": "GameCreated",
      "type": "event"
    },
    {
      "anonymous": false,
      "inputs": [
        {
          "indexed": true,
          "internalType": "uint256",
          "name": "gameId",
          "type": "uint256"
        },
        {
          "indexed": true,
          "internalType": "address",
          "name": "player",
          "type": "address"
        },
        {
          "indexed": false,
          "internalType": "enum RockPaperScissors.Move",
          "name": "move",
          "type": "uint8"
        }
      ],
      "name": "MoveRevealed",
      "type": "event"
    },
    {
      "anonymous": false,
      "inputs": [
        {
          "indexed": true,
          "internalType": "uint256",
          "name": "gameId",
          "type": "uint256"
        },
        {
          "indexed": true,
          "internalType": "address",
          "name": "player",
          "type": "address"
        }
      ],
      "name": "MovesCommitted",
      "type": "event"
    },
    {
      "anonymous": false,
      "inputs": [
        {
          "indexed": true,
          "internalType": "uint256",
          "name": "gameId",
          "type": "uint256"
        },
        {
          "indexed": true,
          "internalType": "address",
          "name": "player",
          "type": "address"
        }
      ],
      "name": "PlayerJoined",
      "type": "event"
    },
    {
      "inputs": [],
      "name": "createGame",
      "outputs": [
        {
          "internalType": "uint256",
          "name": "",
          "type": "uint256"
        }
      ],
      "stateMutability": "nonpayable",
      "type": "function"
    },
    {
      "inputs": [],
      "name": "gameCounter",
      "outputs": [
        {
          "internalType": "uint256",
          "name": "",
          "type": "uint256"
        }
      ],
      "stateMutability": "view",
      "type": "function"
    },
    {
      "inputs": [
        {
          "internalType": "uint256",
          "name": "",
          "type": "uint256"
        }
      ],
      "name": "games",
      "outputs": [
        {
          "components": [
            {
              "internalType": "address payable",
              "name": "addr",
              "type": "address"
            },
            {
              "internalType": "bytes32",
              "name": "hashedMove",
              "type": "bytes32"
            },
            {
              "internalType": "enum RockPaperScissors.Move",
              "name": "revealedMove",
              "type": "uint8"
            }
          ],
          "internalType": "struct RockPaperScissors.Player",
          "name": "player1",
          "type": "tuple"
        },
        {
          "components": [
            {
              "internalType": "address payable",
              "name": "addr",
              "type": "address"
            },
            {
              "internalType": "bytes32",
              "name": "hashedMove",
              "type": "bytes32"
            },
            {
              "internalType": "enum RockPaperScissors.Move",
              "name": "revealedMove",
              "type": "uint8"
            }
          ],
          "internalType": "struct RockPaperScissors.Player",
          "name": "player2",
          "type": "tuple"
        },
        {
          "internalType": "uint256",
          "name": "pot",
          "type": "uint256"
        },
        {
          "internalType": "enum RockPaperScissors.GameStatus",
          "name": "status",
          "type": "uint8"
        }
      ],
      "stateMutability": "view",
      "type": "function"
    },
    {
      "inputs": [
        {
          "internalType": "uint256",
          "name": "gameId",
          "type": "uint256"
        },
        {
          "internalType": "bytes32",
          "name": "hashedMove",
          "type": "bytes32"
        }
      ],
      "name": "joinGame",
      "outputs": [],
      "stateMutability": "payable",
      "type": "function"
    },
    {
      "inputs": [],
      "name": "owner",
      "outputs": [
        {
          "internalType": "address",
          "name": "",
          "type": "address"
        }
      ],
      "stateMutability": "view",
      "type": "function"
    },
    {
      "inputs": [
        {
          "internalType": "uint256",
          "name": "gameId",
          "type": "uint256"
        },
        {
          "internalType": "enum RockPaperScissors.Move",
          "name": "move",
          "type": "uint8"
        },
        {
          "internalType": "string",
          "name": "secret",
          "type": "string"
        }
      ],
      "name": "revealMove",
      "outputs": [],
      "stateMutability": "nonpayable",
      "type": "function"
    }
  ],
  "bytecode": "0x608060405234801561001057600080fd5b50336000806101000a81548173ffffffffffffffffffffffffffffffffffffffff021916908373ffffffffffffffffffffffffffffffffffffffff160217905550611fc0806100606000396000f3fe6080604052600436106100555760003560e01c8063117a5b901461005a5780632e0be39a1461009a5780637255d729146100c55780638da5cb5b146100f0578063ac9526711461011b578063bd675c0e14610137575b600080fd5b34801561006657600080fd5b50610081600480360381019061007c91906112ad565b610160565b6040516100919493929190611444565b60405180910390f35b3480156100a657600080fd5b506100af6102e7565b6040516100bc919061148a565b60405180910390f35b3480156100d157600080fd5b506100da6102ed565b6040516100e7919061148a565b60405180910390f35b3480156100fc57600080fd5b5061010561039b565b60405161011291906114c6565b60405180910390f35b6101356004803603810190610130919061150d565b6103bf565b005b34801561014357600080fd5b5061015e600480360381019061015991906116b8565b6108f1565b005b6001602052806000526040600020600091509050806000016040518060600160405290816000820160009054906101000a900473ffffffffffffffffffffffffffffffffffffffff1673ffffffffffffffffffffffffffffffffffffffff1673ffffffffffffffffffffffffffffffffffffffff168152602001600182015481526020016002820160009054906101000a900460ff16600381111561020857610207611334565b5b600381111561021a57610219611334565b5b8152505090806003016040518060600160405290816000820160009054906101000a900473ffffffffffffffffffffffffffffffffffffffff1673ffffffffffffffffffffffffffffffffffffffff1673ffffffffffffffffffffffffffffffffffffffff168152602001600182015481526020016002820160009054906101000a900460ff1660038111156102b3576102b2611334565b5b60038111156102c5576102c4611334565b5b81525050908060060154908060070160009054906101000a900460ff16905084565b60025481565b60006002600081548092919061030290611756565b9190505550600060016000600254815260200190815260200160002090506000816006018190555060008160070160006101000a81548160ff0219169083600281111561035257610351611334565b5b02179055506002547fa26856d25e558c79e1632806bc6824075cf59885a115825f2aab62385a3f7142600060405161038a91906117e3565b60405180910390a260025491505090565b60008054906101000a900473ffffffffffffffffffffffffffffffffffffffff1681565b6000600160008481526020019081526020016000209050600060028111156103ea576103e9611334565b5b8160070160009054906101000a900460ff16600281111561040e5761040d611334565b5b1461044e576040517f08c379a00000000000000000000000000000000000000000000000000000000081526004016104459061185b565b60405180910390fd5b60003411610491576040517f08c379a0000000000000000000000000000000000000000000000000000000008152600401610488906118ed565b60405180910390fd5b6000801b82036104d6576040517f08c379a00000000000000000000000000000000000000000000000000000000081526004016104cd90611959565b60405180910390fd5b600073ffffffffffffffffffffffffffffffffffffffff168160000160000160009054906101000a900473ffffffffffffffffffffffffffffffffffffffff1673ffffffffffffffffffffffffffffffffffffffff160361061d5760405180606001604052803373ffffffffffffffffffffffffffffffffffffffff1681526020018381526020016000600381111561057257610571611334565b5b8152508160000160008201518160000160006101000a81548173ffffffffffffffffffffffffffffffffffffffff021916908373ffffffffffffffffffffffffffffffffffffffff1602179055506020820151816001015560408201518160020160006101000a81548160ff021916908360038111156105f5576105f4611334565b5b0217905550905050348160060160008282546106119190611979565b925050819055506108a8565b600073ffffffffffffffffffffffffffffffffffffffff168160030160000160009054906101000a900473ffffffffffffffffffffffffffffffffffffffff1673ffffffffffffffffffffffffffffffffffffffff160361086c578060000160000160009054906101000a900473ffffffffffffffffffffffffffffffffffffffff1673ffffffffffffffffffffffffffffffffffffffff163373ffffffffffffffffffffffffffffffffffffffff160361070d576040517f08c379a0000000000000000000000000000000000000000000000000000000008152600401610704906119f9565b60405180910390fd5b80600601543414610753576040517f08c379a000000000000000000000000000000000000000000000000000000000815260040161074a90611a8b565b60405180910390fd5b60405180606001604052803373ffffffffffffffffffffffffffffffffffffffff1681526020018381526020016000600381111561079457610793611334565b5b8152508160030160008201518160000160006101000a81548173ffffffffffffffffffffffffffffffffffffffff021916908373ffffffffffffffffffffffffffffffffffffffff1602179055506020820151816001015560408201518160020160006101000a81548160ff0219169083600381111561081757610816611334565b5b0217905550905050348160060160008282546108339190611979565b9250508190555060018160070160006101000a81548160ff0219169083600281111561086257610861611334565b5b02179055506108a7565b6040517f08c379a000000000000000000000000000000000000000000000000000000000815260040161089e90611af7565b60405180910390fd5b5b3373ffffffffffffffffffffffffffffffffffffffff16837f87969bc7faf902221a147b95ceba76e011c5efb0339a0a8ee7a2bb82d9cfbbd660405160405180910390a3505050565b60006001600085815260200190815260200160002090506001600281111561091c5761091b611334565b5b8160070160009054906101000a900460ff1660028111156109405761093f611334565b5b14610980576040517f08c379a000000000000000000000000000000000000000000000000000000000815260040161097790611b63565b60405180910390fd5b6000600381111561099457610993611334565b5b8360038111156109a7576109a6611334565b5b036109e7576040517f08c379a00000000000000000000000000000000000000000000000000000000081526004016109de90611bcf565b60405180910390fd5b8060000160000160009054906101000a900473ffffffffffffffffffffffffffffffffffffffff1673ffffffffffffffffffffffffffffffffffffffff163373ffffffffffffffffffffffffffffffffffffffff161480610a9a57508060030160000160009054906101000a900473ffffffffffffffffffffffffffffffffffffffff1673ffffffffffffffffffffffffffffffffffffffff163373ffffffffffffffffffffffffffffffffffffffff16145b610ad9576040517f08c379a0000000000000000000000000000000000000000000000000000000008152600401610ad090611c61565b60405180910390fd5b60008160000160000160009054906101000a900473ffffffffffffffffffffffffffffffffffffffff1673ffffffffffffffffffffffffffffffffffffffff163373ffffffffffffffffffffffffffffffffffffffff1614610b3e5781600301610b43565b816000015b905060006003811115610b5957610b58611334565b5b8160020160009054906101000a900460ff166003811115610b7d57610b7c611334565b5b14610bbd576040517f08c379a0000000000000000000000000000000000000000000000000000000008152600401610bb490611ccd565b60405180910390fd5b80600101548484604051602001610bd5929190611d94565b6040516020818303038152906040528051906020012014610c2b576040517f08c379a0000000000000000000000000000000000000000000000000000000008152600401610c2290611e08565b60405180910390fd5b838160020160006101000a81548160ff02191690836003811115610c5257610c51611334565b5b02179055503373ffffffffffffffffffffffffffffffffffffffff16857fdd17665bf97c2a169e97f4f62f36023bf40807eb797a922864394a910d5c37c886604051610c9e9190611e37565b60405180910390a360006003811115610cba57610cb9611334565b5b8260000160020160009054906101000a900460ff166003811115610ce157610ce0611334565b5b14158015610d28575060006003811115610cfe57610cfd611334565b5b8260030160020160009054906101000a900460ff166003811115610d2557610d24611334565b5b14155b15610d3757610d3685610d3e565b5b5050505050565b600060016000838152602001908152602001600020905060006003811115610d6957610d68611334565b5b8160000160020160009054906101000a900460ff166003811115610d9057610d8f611334565b5b03610dd0576040517f08c379a0000000000000000000000000000000000000000000000000000000008152600401610dc790611e9e565b60405180910390fd5b60006003811115610de457610de3611334565b5b8160030160020160009054906101000a900460ff166003811115610e0b57610e0a611334565b5b03610e4b576040517f08c379a0000000000000000000000000000000000000000000000000000000008152600401610e4290611f0a565b60405180910390fd5b60008160030160020160009054906101000a900460ff166003811115610e7457610e73611334565b5b8260000160020160009054906101000a900460ff166003811115610e9b57610e9a611334565b5b03610fa1578160000160000160009054906101000a900473ffffffffffffffffffffffffffffffffffffffff1673ffffffffffffffffffffffffffffffffffffffff166108fc60028460060154610ef29190611f59565b9081150290604051600060405180830381858888f19350505050158015610f1d573d6000803e3d6000fd5b508160030160000160009054906101000a900473ffffffffffffffffffffffffffffffffffffffff1673ffffffffffffffffffffffffffffffffffffffff166108fc60028460060154610f709190611f59565b9081150290604051600060405180830381858888f19350505050158015610f9b573d6000803e3d6000fd5b5061115e565b60016003811115610fb557610fb4611334565b5b8260000160020160009054906101000a900460ff166003811115610fdc57610fdb611334565b5b1480156110205750600380811115610ff757610ff6611334565b5b8260030160020160009054906101000a900460ff16600381111561101e5761101d611334565b5b145b806110a6575060038081111561103957611038611334565b5b8260000160020160009054906101000a900460ff1660038111156110605761105f611334565b5b1480156110a557506002600381111561107c5761107b611334565b5b8260030160020160009054906101000a900460ff1660038111156110a3576110a2611334565b5b145b5b8061112d5750600260038111156110c0576110bf611334565b5b8260000160020160009054906101000a900460ff1660038111156110e7576110e6611334565b5b14801561112c57506001600381111561110357611102611334565b5b8260030160020160009054906101000a900460ff16600381111561112a57611129611334565b5b145b5b1561115d578160000160000160009054906101000a900473ffffffffffffffffffffffffffffffffffffffff1690505b5b600073ffffffffffffffffffffffffffffffffffffffff168173ffffffffffffffffffffffffffffffffffffffff1614611231578073ffffffffffffffffffffffffffffffffffffffff166108fc83600601549081150290604051600060405180830381858888f193505050501580156111dc573d6000803e3d6000fd5b508073ffffffffffffffffffffffffffffffffffffffff16837ff6ae188cc6336ef5ad970d3c81cda5814b4c4902540924c6924debe94ece13eb8460060154604051611228919061148a565b60405180910390a35b60028260070160006101000a81548160ff0219169083600281111561125957611258611334565b5b0217905550505050565b6000604051905090565b600080fd5b600080fd5b6000819050919050565b61128a81611277565b811461129557600080fd5b50565b6000813590506112a781611281565b92915050565b6000602082840312156112c3576112c261126d565b5b60006112d184828501611298565b91505092915050565b600073ffffffffffffffffffffffffffffffffffffffff82169050919050565b6000611305826112da565b9050919050565b611315816112fa565b82525050565b6000819050919050565b61132e8161131b565b82525050565b7f4e487b7100000000000000000000000000000000000000000000000000000000600052602160045260246000fd5b6004811061137457611373611334565b5b50565b600081905061138582611363565b919050565b600061139582611377565b9050919050565b6113a58161138a565b82525050565b6060820160008201516113c1600085018261130c565b5060208201516113d46020850182611325565b5060408201516113e7604085018261139c565b50505050565b6113f681611277565b82525050565b6003811061140d5761140c611334565b5b50565b600081905061141e826113fc565b919050565b600061142e82611410565b9050919050565b61143e81611423565b82525050565b60006101008201905061145a60008301876113ab565b61146760608301866113ab565b61147460c08301856113ed565b61148160e0830184611435565b95945050505050565b600060208201905061149f60008301846113ed565b92915050565b60006114b0826112da565b9050919050565b6114c0816114a5565b82525050565b60006020820190506114db60008301846114b7565b92915050565b6114ea8161131b565b81146114f557600080fd5b50565b600081359050611507816114e1565b92915050565b600080604083850312156115245761152361126d565b5b600061153285828601611298565b9250506020611543858286016114f8565b9150509250929050565b6004811061155a57600080fd5b50565b60008135905061156c8161154d565b92915050565b600080fd5b600080fd5b6000601f19601f8301169050919050565b7f4e487b7100000000000000000000000000000000000000000000000000000000600052604160045260246000fd5b6115c58261157c565b810181811067ffffffffffffffff821117156115e4576115e361158d565b5b80604052505050565b60006115f7611263565b905061160382826115bc565b919050565b600067ffffffffffffffff8211156116235761162261158d565b5b61162c8261157c565b9050602081019050919050565b82818337600083830152505050565b600061165b61165684611608565b6115ed565b90508281526020810184848401111561167757611676611577565b5b611682848285611639565b509392505050565b600082601f83011261169f5761169e611572565b5b81356116af848260208601611648565b91505092915050565b6000806000606084860312156116d1576116d061126d565b5b60006116df86828701611298565b93505060206116f08682870161155d565b925050604084013567ffffffffffffffff81111561171157611710611272565b5b61171d8682870161168a565b9150509250925092565b7f4e487b7100000000000000000000000000000000000000000000000000000000600052601160045260246000fd5b600061176182611277565b91507fffffffffffffffffffffffffffffffffffffffffffffffffffffffffffffffff820361179357611792611727565b5b600182019050919050565b6000819050919050565b6000819050919050565b60006117cd6117c86117c38461179e565b6117a8565b611277565b9050919050565b6117dd816117b2565b82525050565b60006020820190506117f860008301846117d4565b92915050565b600082825260208201905092915050565b7f47616d65206973206e6f742077616974696e6720666f7220706c617965727300600082015250565b6000611845601f836117fe565b91506118508261180f565b602082019050919050565b6000602082019050818103600083015261187481611838565b9050919050565b7f42657420616d6f756e74206d7573742062652067726561746572207468616e2060008201527f3000000000000000000000000000000000000000000000000000000000000000602082015250565b60006118d76021836117fe565b91506118e28261187b565b604082019050919050565b60006020820190508181036000830152611906816118ca565b9050919050565b7f486173686564206d6f7665206973207265717569726564000000000000000000600082015250565b60006119436017836117fe565b915061194e8261190d565b602082019050919050565b6000602082019050818103600083015261197281611936565b9050919050565b600061198482611277565b915061198f83611277565b92508282019050808211156119a7576119a6611727565b5b92915050565b7f506c61796572312063616e6e6f74206a6f696e20616761696e00000000000000600082015250565b60006119e36019836117fe565b91506119ee826119ad565b602082019050919050565b60006020820190508181036000830152611a12816119d6565b9050919050565b7f42657420616d6f756e74206d757374206d6174636820506c617965723127732060008201527f6265740000000000000000000000000000000000000000000000000000000000602082015250565b6000611a756023836117fe565b9150611a8082611a19565b604082019050919050565b60006020820190508181036000830152611aa481611a68565b9050919050565b7f47616d6520616c7265616479206861732074776f20706c617965727300000000600082015250565b6000611ae1601c836117fe565b9150611aec82611aab565b602082019050919050565b60006020820190508181036000830152611b1081611ad4565b9050919050565b7f47616d65206973206e6f7420696e2072657665616c2070686173650000000000600082015250565b6000611b4d601b836117fe565b9150611b5882611b17565b602082019050919050565b60006020820190508181036000830152611b7c81611b40565b9050919050565b7f496e76616c6964206d6f76650000000000000000000000000000000000000000600082015250565b6000611bb9600c836117fe565b9150611bc482611b83565b602082019050919050565b60006020820190508181036000830152611be881611bac565b9050919050565b7f4f6e6c792067616d65207061727469636970616e74732063616e20726576656160008201527f6c206d6f76657300000000000000000000000000000000000000000000000000602082015250565b6000611c4b6027836117fe565b9150611c5682611bef565b604082019050919050565b60006020820190508181036000830152611c7a81611c3e565b9050919050565b7f4d6f766520616c72656164792072657665616c65640000000000000000000000600082015250565b6000611cb76015836117fe565b9150611cc282611c81565b602082019050919050565b60006020820190508181036000830152611ce681611caa565b9050919050565b60008160f81b9050919050565b6000611d0582611ced565b9050919050565b611d1d611d188261138a565b611cfa565b82525050565b600081519050919050565b600081905092915050565b60005b83811015611d57578082015181840152602081019050611d3c565b60008484015250505050565b6000611d6e82611d23565b611d788185611d2e565b9350611d88818560208601611d39565b80840191505092915050565b6000611da08285611d0c565b600182019150611db08284611d63565b91508190509392505050565b7f4d6f766520646f6573206e6f74206d6174636800000000000000000000000000600082015250565b6000611df26013836117fe565b9150611dfd82611dbc565b602082019050919050565b60006020820190508181036000830152611e2181611de5565b9050919050565b611e318161138a565b82525050565b6000602082019050611e4c6000830184611e28565b92915050565b7f506c6179657231206d6f7665206e6f742072657665616c656400000000000000600082015250565b6000611e886019836117fe565b9150611e9382611e52565b602082019050919050565b60006020820190508181036000830152611eb781611e7b565b9050919050565b7f506c6179657232206d6f7665206e6f742072657665616c656400000000000000600082015250565b6000611ef46019836117fe565b9150611eff82611ebe565b602082019050919050565b60006020820190508181036000830152611f2381611ee7565b9050919050565b7f4e487b7100000000000000000000000000000000000000000000000000000000600052601260045260246000fd5b6000611f6482611277565b9150611f6f83611277565b925082611f7f57611f7e611f2a565b5b82820490509291505056fea26469706673582212203adc456efccd69a5fba4aa4472db2dcfba3db38448bf6d1cd2184942d03edcac64736f6c63430008140033",
  "linkReferences": {},
  "deployedLinkReferences": {}
}