{
  "_format": "hh-sol-artifact-1",
  "contractName": "RockPaperScissors",
  "sourceName": "contracts/RPS.sol",
  "abi": [
    {
      "inputs": [],
      "stateMutability": "nonpayable",
      "type": "constructor"
    },
    {
      "anonymous": false,
      "inputs": [
        {
          "indexed": true,
          "internalType": "uint256",
          "name": "gameId",
          "type": "uint256"
        },
        {
          "indexed": true,
          "internalType": "address",
          "name": "winner",
          "type": "address"
        },
        {
          "indexed": false,
          "internalType": "uint256",
          "name": "pot",
          "type": "uint256"
        }
      ],
      "name": "GameCompleted",
      "type": "event"
    },
    {
      "anonymous": false,
      "inputs": [
        {
          "indexed": true,
          "internalType": "uint256",
          "name": "gameId",
          "type": "uint256"
        },
        {
          "indexed": false,
          "internalType": "uint256",
          "name": "betAmount",
          "type": "uint256"
        }
      ],
      "name": "GameCreated",
      "type": "event"
    },
    {
      "anonymous": false,
      "inputs": [
        {
          "indexed": true,
          "internalType": "uint256",
          "name": "gameId",
          "type": "uint256"
        },
        {
          "indexed": true,
          "internalType": "address",
          "name": "player",
          "type": "address"
        },
        {
          "indexed": false,
          "internalType": "enum RockPaperScissors.Move",
          "name": "move",
          "type": "uint8"
        }
      ],
      "name": "MoveRevealed",
      "type": "event"
    },
    {
      "anonymous": false,
      "inputs": [
        {
          "indexed": true,
          "internalType": "uint256",
          "name": "gameId",
          "type": "uint256"
        },
        {
          "indexed": true,
          "internalType": "address",
          "name": "player",
          "type": "address"
        }
      ],
      "name": "MovesCommitted",
      "type": "event"
    },
    {
      "anonymous": false,
      "inputs": [
        {
          "indexed": true,
          "internalType": "uint256",
          "name": "gameId",
          "type": "uint256"
        },
        {
          "indexed": true,
          "internalType": "address",
          "name": "player",
          "type": "address"
        }
      ],
      "name": "PlayerJoined",
      "type": "event"
    },
    {
      "inputs": [
        {
          "internalType": "address",
          "name": "",
          "type": "address"
        }
      ],
      "name": "activeGame",
      "outputs": [
        {
          "internalType": "uint256",
          "name": "",
          "type": "uint256"
        }
      ],
      "stateMutability": "view",
      "type": "function"
    },
    {
      "inputs": [
        {
          "internalType": "uint256",
          "name": "gameId",
          "type": "uint256"
        },
        {
          "internalType": "bytes32",
          "name": "hashedMove",
          "type": "bytes32"
        }
      ],
      "name": "commitMove",
      "outputs": [],
      "stateMutability": "nonpayable",
      "type": "function"
    },
    {
      "inputs": [],
      "name": "createGame",
      "outputs": [
        {
          "internalType": "uint256",
          "name": "",
          "type": "uint256"
        }
      ],
      "stateMutability": "nonpayable",
      "type": "function"
    },
    {
      "inputs": [],
      "name": "gameCounter",
      "outputs": [
        {
          "internalType": "uint256",
          "name": "",
          "type": "uint256"
        }
      ],
      "stateMutability": "view",
      "type": "function"
    },
    {
      "inputs": [
        {
          "internalType": "uint256",
          "name": "",
          "type": "uint256"
        }
      ],
      "name": "games",
      "outputs": [
        {
          "components": [
            {
              "internalType": "address payable",
              "name": "addr",
              "type": "address"
            },
            {
              "internalType": "bytes32",
              "name": "hashedMove",
              "type": "bytes32"
            },
            {
              "internalType": "enum RockPaperScissors.Move",
              "name": "revealedMove",
              "type": "uint8"
            },
            {
              "internalType": "uint256",
              "name": "joinTime",
              "type": "uint256"
            }
          ],
          "internalType": "struct RockPaperScissors.Player",
          "name": "player1",
          "type": "tuple"
        },
        {
          "components": [
            {
              "internalType": "address payable",
              "name": "addr",
              "type": "address"
            },
            {
              "internalType": "bytes32",
              "name": "hashedMove",
              "type": "bytes32"
            },
            {
              "internalType": "enum RockPaperScissors.Move",
              "name": "revealedMove",
              "type": "uint8"
            },
            {
              "internalType": "uint256",
              "name": "joinTime",
              "type": "uint256"
            }
          ],
          "internalType": "struct RockPaperScissors.Player",
          "name": "player2",
          "type": "tuple"
        },
        {
          "internalType": "uint256",
          "name": "pot",
          "type": "uint256"
        },
        {
          "internalType": "enum RockPaperScissors.GameStatus",
          "name": "status",
          "type": "uint8"
        }
      ],
      "stateMutability": "view",
      "type": "function"
    },
    {
      "inputs": [
        {
          "internalType": "uint256",
          "name": "gameId",
          "type": "uint256"
        }
      ],
      "name": "getPlayerCount",
      "outputs": [
        {
          "internalType": "uint256",
          "name": "",
          "type": "uint256"
        }
      ],
      "stateMutability": "view",
      "type": "function"
    },
    {
      "inputs": [
        {
          "internalType": "uint256",
          "name": "gameId",
          "type": "uint256"
        }
      ],
      "name": "joinGame",
      "outputs": [],
      "stateMutability": "nonpayable",
      "type": "function"
    },
    {
      "inputs": [],
      "name": "owner",
      "outputs": [
        {
          "internalType": "address",
          "name": "",
          "type": "address"
        }
      ],
      "stateMutability": "view",
      "type": "function"
    },
    {
      "inputs": [
        {
          "internalType": "uint256",
          "name": "gameId",
          "type": "uint256"
        },
        {
          "internalType": "enum RockPaperScissors.Move",
          "name": "move",
          "type": "uint8"
        },
        {
          "internalType": "string",
          "name": "secret",
          "type": "string"
        }
      ],
      "name": "revealMove",
      "outputs": [],
      "stateMutability": "nonpayable",
      "type": "function"
    }
  ],
  "bytecode": "0x608060405234801561001057600080fd5b50336000806101000a81548173ffffffffffffffffffffffffffffffffffffffff021916908373ffffffffffffffffffffffffffffffffffffffff160217905550612511806100606000396000f3fe608060405234801561001057600080fd5b50600436106100935760003560e01c80638da5cb5b116100665780638da5cb5b14610123578063a83d3e8d14610141578063ab1205e914610171578063bd675c0e146101a1578063efaa55a0146101bd57610093565b8063117a5b901461009857806326826f62146100cb5780632e0be39a146100e75780637255d72914610105575b600080fd5b6100b260048036038101906100ad9190611792565b6101d9565b6040516100c2949392919061194b565b60405180910390f35b6100e560048036038101906100e091906119bf565b610374565b005b6100ef6105b9565b6040516100fc91906119ff565b60405180910390f35b61010d6105bf565b60405161011a91906119ff565b60405180910390f35b61012b61066d565b6040516101389190611a3b565b60405180910390f35b61015b60048036038101906101569190611a82565b610691565b60405161016891906119ff565b60405180910390f35b61018b60048036038101906101869190611792565b6106a9565b60405161019891906119ff565b60405180910390f35b6101bb60048036038101906101b69190611c1a565b6107a0565b005b6101d760048036038101906101d29190611792565b610bfa565b005b6001602052806000526040600020600091509050806000016040518060800160405290816000820160009054906101000a900473ffffffffffffffffffffffffffffffffffffffff1673ffffffffffffffffffffffffffffffffffffffff1673ffffffffffffffffffffffffffffffffffffffff168152602001600182015481526020016002820160009054906101000a900460ff16600381111561028157610280611819565b5b600381111561029357610292611819565b5b815260200160038201548152505090806004016040518060800160405290816000820160009054906101000a900473ffffffffffffffffffffffffffffffffffffffff1673ffffffffffffffffffffffffffffffffffffffff1673ffffffffffffffffffffffffffffffffffffffff168152602001600182015481526020016002820160009054906101000a900460ff16600381111561033657610335611819565b5b600381111561034857610347611819565b5b8152602001600382015481525050908060080154908060090160009054906101000a900460ff16905084565b60006001600084815260200190815260200160002090506001600281111561039f5761039e611819565b5b8160090160009054906101000a900460ff1660028111156103c3576103c2611819565b5b14610403576040517f08c379a00000000000000000000000000000000000000000000000000000000081526004016103fa90611ce6565b60405180910390fd5b8060000160000160009054906101000a900473ffffffffffffffffffffffffffffffffffffffff1673ffffffffffffffffffffffffffffffffffffffff163373ffffffffffffffffffffffffffffffffffffffff1614806104b657508060040160000160009054906101000a900473ffffffffffffffffffffffffffffffffffffffff1673ffffffffffffffffffffffffffffffffffffffff163373ffffffffffffffffffffffffffffffffffffffff16145b6104f5576040517f08c379a00000000000000000000000000000000000000000000000000000000081526004016104ec90611d78565b60405180910390fd5b60008160000160000160009054906101000a900473ffffffffffffffffffffffffffffffffffffffff1673ffffffffffffffffffffffffffffffffffffffff163373ffffffffffffffffffffffffffffffffffffffff161461055a578160040161055f565b816000015b90506000801b8160010154146105aa576040517f08c379a00000000000000000000000000000000000000000000000000000000081526004016105a190611de4565b60405180910390fd5b82816001018190555050505050565b60025481565b6000600260008154809291906105d490611e33565b9190505550600060016000600254815260200190815260200160002090506000816008018190555060008160090160006101000a81548160ff0219169083600281111561062457610623611819565b5b02179055506002547fa26856d25e558c79e1632806bc6824075cf59885a115825f2aab62385a3f7142600060405161065c9190611ec0565b60405180910390a260025491505090565b60008054906101000a900473ffffffffffffffffffffffffffffffffffffffff1681565b60036020528060005260406000206000915090505481565b60008060016000848152602001908152602001600020905060008073ffffffffffffffffffffffffffffffffffffffff168260000160000160009054906101000a900473ffffffffffffffffffffffffffffffffffffffff1673ffffffffffffffffffffffffffffffffffffffff161461072c57808061072890611e33565b9150505b600073ffffffffffffffffffffffffffffffffffffffff168260040160000160009054906101000a900473ffffffffffffffffffffffffffffffffffffffff1673ffffffffffffffffffffffffffffffffffffffff161461079657808061079290611e33565b9150505b8092505050919050565b6000600160008581526020019081526020016000209050600160028111156107cb576107ca611819565b5b8160090160009054906101000a900460ff1660028111156107ef576107ee611819565b5b1461082f576040517f08c379a000000000000000000000000000000000000000000000000000000000815260040161082690611f27565b60405180910390fd5b8060000160000160009054906101000a900473ffffffffffffffffffffffffffffffffffffffff1673ffffffffffffffffffffffffffffffffffffffff163373ffffffffffffffffffffffffffffffffffffffff1614806108e257508060040160000160009054906101000a900473ffffffffffffffffffffffffffffffffffffffff1673ffffffffffffffffffffffffffffffffffffffff163373ffffffffffffffffffffffffffffffffffffffff16145b610921576040517f08c379a000000000000000000000000000000000000000000000000000000000815260040161091890611fb9565b60405180910390fd5b60008160000160000160009054906101000a900473ffffffffffffffffffffffffffffffffffffffff1673ffffffffffffffffffffffffffffffffffffffff163373ffffffffffffffffffffffffffffffffffffffff1614610986578160040161098b565b816000015b9050600060038111156109a1576109a0611819565b5b8160020160009054906101000a900460ff1660038111156109c5576109c4611819565b5b14610a05576040517f08c379a00000000000000000000000000000000000000000000000000000000081526004016109fc90612025565b60405180910390fd5b60008484604051602001610a1a9291906120c2565b604051602081830303815290604052805190602001209050600a8260030154610a4391906120f2565b42118015610a5757506000801b8260010154145b15610a8e5760018260020160006101000a81548160ff02191690836003811115610a8457610a83611819565b5b0217905550610b01565b81600101548114610ad4576040517f08c379a0000000000000000000000000000000000000000000000000000000008152600401610acb90612172565b60405180910390fd5b848260020160006101000a81548160ff02191690836003811115610afb57610afa611819565b5b02179055505b3373ffffffffffffffffffffffffffffffffffffffff16867fdd17665bf97c2a169e97f4f62f36023bf40807eb797a922864394a910d5c37c88460020160009054906101000a900460ff16604051610b599190612192565b60405180910390a360006003811115610b7557610b74611819565b5b8360000160020160009054906101000a900460ff166003811115610b9c57610b9b611819565b5b14158015610be3575060006003811115610bb957610bb8611819565b5b8360040160020160009054906101000a900460ff166003811115610be057610bdf611819565b5b14155b15610bf257610bf1866111de565b5b505050505050565b60008111610c3d576040517f08c379a0000000000000000000000000000000000000000000000000000000008152600401610c34906121f9565b60405180910390fd5b6000600360003373ffffffffffffffffffffffffffffffffffffffff1673ffffffffffffffffffffffffffffffffffffffff1681526020019081526020016000205414610cbf576040517f08c379a0000000000000000000000000000000000000000000000000000000008152600401610cb690612265565b60405180910390fd5b600060016000838152602001908152602001600020905060006002811115610cea57610ce9611819565b5b8160090160009054906101000a900460ff166002811115610d0e57610d0d611819565b5b14610d4e576040517f08c379a0000000000000000000000000000000000000000000000000000000008152600401610d45906122ab565b60405180910390fd5b600073ffffffffffffffffffffffffffffffffffffffff168160000160000160009054906101000a900473ffffffffffffffffffffffffffffffffffffffff1673ffffffffffffffffffffffffffffffffffffffff1603610f155760405180608001604052803373ffffffffffffffffffffffffffffffffffffffff1681526020016000801b815260200160006003811115610ded57610dec611819565b5b8152602001428152508160000160008201518160000160006101000a81548173ffffffffffffffffffffffffffffffffffffffff021916908373ffffffffffffffffffffffffffffffffffffffff1602179055506020820151816001015560408201518160020160006101000a81548160ff02191690836003811115610e7657610e75611819565b5b02179055506060820151816003015590505081600360003373ffffffffffffffffffffffffffffffffffffffff1673ffffffffffffffffffffffffffffffffffffffff168152602001908152602001600020819055503373ffffffffffffffffffffffffffffffffffffffff16827f87969bc7faf902221a147b95ceba76e011c5efb0339a0a8ee7a2bb82d9cfbbd660405160405180910390a36111da565b600073ffffffffffffffffffffffffffffffffffffffff168160040160000160009054906101000a900473ffffffffffffffffffffffffffffffffffffffff1673ffffffffffffffffffffffffffffffffffffffff160361119e578060000160000160009054906101000a900473ffffffffffffffffffffffffffffffffffffffff1673ffffffffffffffffffffffffffffffffffffffff163373ffffffffffffffffffffffffffffffffffffffff1603611005576040517f08c379a0000000000000000000000000000000000000000000000000000000008152600401610ffc90612317565b60405180910390fd5b60405180608001604052803373ffffffffffffffffffffffffffffffffffffffff1681526020016000801b81526020016000600381111561104957611048611819565b5b8152602001428152508160040160008201518160000160006101000a81548173ffffffffffffffffffffffffffffffffffffffff021916908373ffffffffffffffffffffffffffffffffffffffff1602179055506020820151816001015560408201518160020160006101000a81548160ff021916908360038111156110d2576110d1611819565b5b02179055506060820151816003015590505060018160090160006101000a81548160ff0219169083600281111561110c5761110b611819565b5b021790555081600360003373ffffffffffffffffffffffffffffffffffffffff1673ffffffffffffffffffffffffffffffffffffffff168152602001908152602001600020819055503373ffffffffffffffffffffffffffffffffffffffff16827f87969bc7faf902221a147b95ceba76e011c5efb0339a0a8ee7a2bb82d9cfbbd660405160405180910390a36111d9565b6040517f08c379a00000000000000000000000000000000000000000000000000000000081526004016111d090612383565b60405180910390fd5b5b5050565b60006001600083815260200190815260200160002090506000600381111561120957611208611819565b5b8160000160020160009054906101000a900460ff1660038111156112305761122f611819565b5b03611270576040517f08c379a0000000000000000000000000000000000000000000000000000000008152600401611267906123ef565b60405180910390fd5b6000600381111561128457611283611819565b5b8160040160020160009054906101000a900460ff1660038111156112ab576112aa611819565b5b036112eb576040517f08c379a00000000000000000000000000000000000000000000000000000000081526004016112e29061245b565b60405180910390fd5b60008160040160020160009054906101000a900460ff16600381111561131457611313611819565b5b8260000160020160009054906101000a900460ff16600381111561133b5761133a611819565b5b03611441578160000160000160009054906101000a900473ffffffffffffffffffffffffffffffffffffffff1673ffffffffffffffffffffffffffffffffffffffff166108fc6002846008015461139291906124aa565b9081150290604051600060405180830381858888f193505050501580156113bd573d6000803e3d6000fd5b508160040160000160009054906101000a900473ffffffffffffffffffffffffffffffffffffffff1673ffffffffffffffffffffffffffffffffffffffff166108fc6002846008015461141091906124aa565b9081150290604051600060405180830381858888f1935050505015801561143b573d6000803e3d6000fd5b506116c3565b6001600381111561145557611454611819565b5b8260000160020160009054906101000a900460ff16600381111561147c5761147b611819565b5b1480156114c0575060038081111561149757611496611819565b5b8260040160020160009054906101000a900460ff1660038111156114be576114bd611819565b5b145b8061154657506003808111156114d9576114d8611819565b5b8260000160020160009054906101000a900460ff166003811115611500576114ff611819565b5b14801561154557506002600381111561151c5761151b611819565b5b8260040160020160009054906101000a900460ff16600381111561154357611542611819565b5b145b5b806115cd5750600260038111156115605761155f611819565b5b8260000160020160009054906101000a900460ff16600381111561158757611586611819565b5b1480156115cc5750600160038111156115a3576115a2611819565b5b8260040160020160009054906101000a900460ff1660038111156115ca576115c9611819565b5b145b5b1561164c578160000160000160009054906101000a900473ffffffffffffffffffffffffffffffffffffffff1690508073ffffffffffffffffffffffffffffffffffffffff166108fc83600801549081150290604051600060405180830381858888f19350505050158015611646573d6000803e3d6000fd5b506116c2565b8160040160000160009054906101000a900473ffffffffffffffffffffffffffffffffffffffff1690508073ffffffffffffffffffffffffffffffffffffffff166108fc83600801549081150290604051600060405180830381858888f193505050501580156116c0573d6000803e3d6000fd5b505b5b8073ffffffffffffffffffffffffffffffffffffffff16837ff6ae188cc6336ef5ad970d3c81cda5814b4c4902540924c6924debe94ece13eb846008015460405161170e91906119ff565b60405180910390a360028260090160006101000a81548160ff0219169083600281111561173e5761173d611819565b5b0217905550505050565b6000604051905090565b600080fd5b600080fd5b6000819050919050565b61176f8161175c565b811461177a57600080fd5b50565b60008135905061178c81611766565b92915050565b6000602082840312156117a8576117a7611752565b5b60006117b68482850161177d565b91505092915050565b600073ffffffffffffffffffffffffffffffffffffffff82169050919050565b60006117ea826117bf565b9050919050565b6117fa816117df565b82525050565b6000819050919050565b61181381611800565b82525050565b7f4e487b7100000000000000000000000000000000000000000000000000000000600052602160045260246000fd5b6004811061185957611858611819565b5b50565b600081905061186a82611848565b919050565b600061187a8261185c565b9050919050565b61188a8161186f565b82525050565b6118998161175c565b82525050565b6080820160008201516118b560008501826117f1565b5060208201516118c8602085018261180a565b5060408201516118db6040850182611881565b5060608201516118ee6060850182611890565b50505050565b6118fd8161175c565b82525050565b6003811061191457611913611819565b5b50565b600081905061192582611903565b919050565b600061193582611917565b9050919050565b6119458161192a565b82525050565b600061014082019050611961600083018761189f565b61196e608083018661189f565b61197c6101008301856118f4565b61198a61012083018461193c565b95945050505050565b61199c81611800565b81146119a757600080fd5b50565b6000813590506119b981611993565b92915050565b600080604083850312156119d6576119d5611752565b5b60006119e48582860161177d565b92505060206119f5858286016119aa565b9150509250929050565b6000602082019050611a1460008301846118f4565b92915050565b6000611a25826117bf565b9050919050565b611a3581611a1a565b82525050565b6000602082019050611a506000830184611a2c565b92915050565b611a5f81611a1a565b8114611a6a57600080fd5b50565b600081359050611a7c81611a56565b92915050565b600060208284031215611a9857611a97611752565b5b6000611aa684828501611a6d565b91505092915050565b60048110611abc57600080fd5b50565b600081359050611ace81611aaf565b92915050565b600080fd5b600080fd5b6000601f19601f8301169050919050565b7f4e487b7100000000000000000000000000000000000000000000000000000000600052604160045260246000fd5b611b2782611ade565b810181811067ffffffffffffffff82111715611b4657611b45611aef565b5b80604052505050565b6000611b59611748565b9050611b658282611b1e565b919050565b600067ffffffffffffffff821115611b8557611b84611aef565b5b611b8e82611ade565b9050602081019050919050565b82818337600083830152505050565b6000611bbd611bb884611b6a565b611b4f565b905082815260208101848484011115611bd957611bd8611ad9565b5b611be4848285611b9b565b509392505050565b600082601f830112611c0157611c00611ad4565b5b8135611c11848260208601611baa565b91505092915050565b600080600060608486031215611c3357611c32611752565b5b6000611c418682870161177d565b9350506020611c5286828701611abf565b925050604084013567ffffffffffffffff811115611c7357611c72611757565b5b611c7f86828701611bec565b9150509250925092565b600082825260208201905092915050565b7f47616d65206973206e6f7420616363657074696e67206d6f7665730000000000600082015250565b6000611cd0601b83611c89565b9150611cdb82611c9a565b602082019050919050565b60006020820190508181036000830152611cff81611cc3565b9050919050565b7f4f6e6c7920706c617965727320696e207468652067616d652063616e20636f6d60008201527f6d6974206d6f7665730000000000000000000000000000000000000000000000602082015250565b6000611d62602983611c89565b9150611d6d82611d06565b604082019050919050565b60006020820190508181036000830152611d9181611d55565b9050919050565b7f4d6f766520616c726561647920636f6d6d697474656400000000000000000000600082015250565b6000611dce601683611c89565b9150611dd982611d98565b602082019050919050565b60006020820190508181036000830152611dfd81611dc1565b9050919050565b7f4e487b7100000000000000000000000000000000000000000000000000000000600052601160045260246000fd5b6000611e3e8261175c565b91507fffffffffffffffffffffffffffffffffffffffffffffffffffffffffffffffff8203611e7057611e6f611e04565b5b600182019050919050565b6000819050919050565b6000819050919050565b6000611eaa611ea5611ea084611e7b565b611e85565b61175c565b9050919050565b611eba81611e8f565b82525050565b6000602082019050611ed56000830184611eb1565b92915050565b7f47616d65206973206e6f7420696e2072657665616c2070686173650000000000600082015250565b6000611f11601b83611c89565b9150611f1c82611edb565b602082019050919050565b60006020820190508181036000830152611f4081611f04565b9050919050565b7f4f6e6c7920706c617965727320696e207468652067616d652063616e2072657660008201527f65616c206d6f7665730000000000000000000000000000000000000000000000602082015250565b6000611fa3602983611c89565b9150611fae82611f47565b604082019050919050565b60006020820190508181036000830152611fd281611f96565b9050919050565b7f4d6f766520616c72656164792072657665616c65640000000000000000000000600082015250565b600061200f601583611c89565b915061201a82611fd9565b602082019050919050565b6000602082019050818103600083015261203e81612002565b9050919050565b61204e8161186f565b82525050565b600081519050919050565b60005b8381101561207d578082015181840152602081019050612062565b60008484015250505050565b600061209482612054565b61209e8185611c89565b93506120ae81856020860161205f565b6120b781611ade565b840191505092915050565b60006040820190506120d76000830185612045565b81810360208301526120e98184612089565b90509392505050565b60006120fd8261175c565b91506121088361175c565b92508282019050808211156121205761211f611e04565b5b92915050565b7f496e76616c6964206d6f7665206f722073656372657400000000000000000000600082015250565b600061215c601683611c89565b915061216782612126565b602082019050919050565b6000602082019050818103600083015261218b8161214f565b9050919050565b60006020820190506121a76000830184612045565b92915050565b7f496e76616c69642067616d654944000000000000000000000000000000000000600082015250565b60006121e3600e83611c89565b91506121ee826121ad565b602082019050919050565b60006020820190508181036000830152612212816121d6565b9050919050565b7f596f752061726520616c726561647920696e20612067616d6521000000000000600082015250565b600061224f601a83611c89565b915061225a82612219565b602082019050919050565b6000602082019050818103600083015261227e81612242565b9050919050565b50565b6000612295600083611c89565b91506122a082612285565b600082019050919050565b600060208201905081810360008301526122c481612288565b9050919050565b7f506c61796572312063616e6e6f74206a6f696e20616761696e00000000000000600082015250565b6000612301601983611c89565b915061230c826122cb565b602082019050919050565b60006020820190508181036000830152612330816122f4565b9050919050565b7f47616d6520616c7265616479206861732074776f20706c617965727300000000600082015250565b600061236d601c83611c89565b915061237882612337565b602082019050919050565b6000602082019050818103600083015261239c81612360565b9050919050565b7f506c6179657231206d6f7665206e6f742072657665616c656400000000000000600082015250565b60006123d9601983611c89565b91506123e4826123a3565b602082019050919050565b60006020820190508181036000830152612408816123cc565b9050919050565b7f506c6179657232206d6f7665206e6f742072657665616c656400000000000000600082015250565b6000612445601983611c89565b91506124508261240f565b602082019050919050565b6000602082019050818103600083015261247481612438565b9050919050565b7f4e487b7100000000000000000000000000000000000000000000000000000000600052601260045260246000fd5b60006124b58261175c565b91506124c08361175c565b9250826124d0576124cf61247b565b5b82820490509291505056fea2646970667358221220e819f5f27dab07c43aee2ed73009ec44a684e112a72cdea597bbc0e117f736c664736f6c63430008140033",
  "linkReferences": {},
  "deployedLinkReferences": {}
}