{
  "_format": "hh-sol-artifact-1",
  "contractName": "RockPaperScissors",
  "sourceName": "contracts/RPS.sol",
  "abi": [
    {
      "inputs": [],
      "stateMutability": "nonpayable",
      "type": "constructor"
    },
    {
      "anonymous": false,
      "inputs": [
        {
          "indexed": false,
          "internalType": "string",
          "name": "message",
          "type": "string"
        },
        {
          "indexed": false,
          "internalType": "uint256",
          "name": "value",
          "type": "uint256"
        }
      ],
      "name": "DebugLog",
      "type": "event"
    },
    {
      "anonymous": false,
      "inputs": [
        {
          "indexed": false,
          "internalType": "string",
          "name": "message",
          "type": "string"
        },
        {
          "indexed": false,
          "internalType": "address",
          "name": "addr",
          "type": "address"
        }
      ],
      "name": "DebugLog",
      "type": "event"
    },
    {
      "anonymous": false,
      "inputs": [
        {
          "indexed": true,
          "internalType": "uint256",
          "name": "gameId",
          "type": "uint256"
        },
        {
          "indexed": true,
          "internalType": "address",
          "name": "winner",
          "type": "address"
        },
        {
          "indexed": false,
          "internalType": "uint256",
          "name": "pot",
          "type": "uint256"
        }
      ],
      "name": "GameCompleted",
      "type": "event"
    },
    {
      "anonymous": false,
      "inputs": [
        {
          "indexed": true,
          "internalType": "uint256",
          "name": "gameId",
          "type": "uint256"
        },
        {
          "indexed": false,
          "internalType": "uint256",
          "name": "betAmount",
          "type": "uint256"
        }
      ],
      "name": "GameCreated",
      "type": "event"
    },
    {
      "anonymous": false,
      "inputs": [
        {
          "indexed": true,
          "internalType": "uint256",
          "name": "gameId",
          "type": "uint256"
        },
        {
          "indexed": true,
          "internalType": "address",
          "name": "player",
          "type": "address"
        },
        {
          "indexed": false,
          "internalType": "enum RockPaperScissors.Move",
          "name": "move",
          "type": "uint8"
        }
      ],
      "name": "MoveRevealed",
      "type": "event"
    },
    {
      "anonymous": false,
      "inputs": [
        {
          "indexed": true,
          "internalType": "uint256",
          "name": "gameId",
          "type": "uint256"
        },
        {
          "indexed": true,
          "internalType": "address",
          "name": "player",
          "type": "address"
        }
      ],
      "name": "MovesCommitted",
      "type": "event"
    },
    {
      "anonymous": false,
      "inputs": [
        {
          "indexed": true,
          "internalType": "uint256",
          "name": "gameId",
          "type": "uint256"
        },
        {
          "indexed": true,
          "internalType": "address",
          "name": "player",
          "type": "address"
        }
      ],
      "name": "PlayerJoined",
      "type": "event"
    },
    {
      "anonymous": false,
      "inputs": [
        {
          "indexed": true,
          "internalType": "uint256",
          "name": "gameId",
          "type": "uint256"
        },
        {
          "indexed": true,
          "internalType": "address",
          "name": "player",
          "type": "address"
        }
      ],
      "name": "PlayerLeft",
      "type": "event"
    },
    {
      "inputs": [
        {
          "internalType": "address",
          "name": "",
          "type": "address"
        }
      ],
      "name": "activeGame",
      "outputs": [
        {
          "internalType": "uint256",
          "name": "",
          "type": "uint256"
        }
      ],
      "stateMutability": "view",
      "type": "function"
    },
    {
      "inputs": [
        {
          "internalType": "uint256",
          "name": "gameId",
          "type": "uint256"
        },
        {
          "internalType": "bytes32",
          "name": "hashedMove",
          "type": "bytes32"
        }
      ],
      "name": "commitMove",
      "outputs": [],
      "stateMutability": "nonpayable",
      "type": "function"
    },
    {
      "inputs": [],
      "name": "createGame",
      "outputs": [
        {
          "internalType": "uint256",
          "name": "",
          "type": "uint256"
        }
      ],
      "stateMutability": "nonpayable",
      "type": "function"
    },
    {
      "inputs": [],
      "name": "gameCounter",
      "outputs": [
        {
          "internalType": "uint256",
          "name": "",
          "type": "uint256"
        }
      ],
      "stateMutability": "view",
      "type": "function"
    },
    {
      "inputs": [
        {
          "internalType": "uint256",
          "name": "",
          "type": "uint256"
        }
      ],
      "name": "games",
      "outputs": [
        {
          "components": [
            {
              "internalType": "address payable",
              "name": "addr",
              "type": "address"
            },
            {
              "internalType": "bytes32",
              "name": "hashedMove",
              "type": "bytes32"
            },
            {
              "internalType": "enum RockPaperScissors.Move",
              "name": "revealedMove",
              "type": "uint8"
            },
            {
              "internalType": "uint256",
              "name": "joinTime",
              "type": "uint256"
            }
          ],
          "internalType": "struct RockPaperScissors.Player",
          "name": "player1",
          "type": "tuple"
        },
        {
          "components": [
            {
              "internalType": "address payable",
              "name": "addr",
              "type": "address"
            },
            {
              "internalType": "bytes32",
              "name": "hashedMove",
              "type": "bytes32"
            },
            {
              "internalType": "enum RockPaperScissors.Move",
              "name": "revealedMove",
              "type": "uint8"
            },
            {
              "internalType": "uint256",
              "name": "joinTime",
              "type": "uint256"
            }
          ],
          "internalType": "struct RockPaperScissors.Player",
          "name": "player2",
          "type": "tuple"
        },
        {
          "internalType": "uint256",
          "name": "pot",
          "type": "uint256"
        },
        {
          "internalType": "uint256",
          "name": "betAmount",
          "type": "uint256"
        },
        {
          "internalType": "uint256",
          "name": "startTime",
          "type": "uint256"
        },
        {
          "internalType": "bool",
          "name": "isActive",
          "type": "bool"
        },
        {
          "internalType": "enum RockPaperScissors.GameStatus",
          "name": "status",
          "type": "uint8"
        }
      ],
      "stateMutability": "view",
      "type": "function"
    },
    {
      "inputs": [
        {
          "internalType": "uint256",
          "name": "gameId",
          "type": "uint256"
        }
      ],
      "name": "getPlayerCount",
      "outputs": [
        {
          "internalType": "uint256",
          "name": "",
          "type": "uint256"
        }
      ],
      "stateMutability": "view",
      "type": "function"
    },
    {
      "inputs": [
        {
          "internalType": "uint256",
          "name": "gameId",
          "type": "uint256"
        }
      ],
      "name": "joinGame",
      "outputs": [],
      "stateMutability": "payable",
      "type": "function"
    },
    {
      "inputs": [
        {
          "internalType": "uint256",
          "name": "gameId",
          "type": "uint256"
        }
      ],
      "name": "leaveGame",
      "outputs": [],
      "stateMutability": "nonpayable",
      "type": "function"
    },
    {
      "inputs": [],
      "name": "owner",
      "outputs": [
        {
          "internalType": "address",
          "name": "",
          "type": "address"
        }
      ],
      "stateMutability": "view",
      "type": "function"
    },
    {
      "inputs": [
        {
          "internalType": "uint256",
          "name": "gameId",
          "type": "uint256"
        },
        {
          "internalType": "enum RockPaperScissors.Move",
          "name": "move",
          "type": "uint8"
        },
        {
          "internalType": "string",
          "name": "secret",
          "type": "string"
        }
      ],
      "name": "revealMove",
      "outputs": [],
      "stateMutability": "nonpayable",
      "type": "function"
    }
  ],
  "bytecode": "0x608060405234801561001057600080fd5b50336000806101000a81548173ffffffffffffffffffffffffffffffffffffffff021916908373ffffffffffffffffffffffffffffffffffffffff1602179055506134c6806100606000396000f3fe6080604052600436106100915760003560e01c80638da5cb5b116100595780638da5cb5b14610181578063a83d3e8d146101ac578063ab1205e9146101e9578063bd675c0e14610226578063efaa55a01461024f57610091565b8063117a5b901461009657806326826f62146100d95780632e0be39a146101025780633feef58a1461012d5780637255d72914610156575b600080fd5b3480156100a257600080fd5b506100bd60048036038101906100b8919061247b565b61026b565b6040516100d0979695949392919061264f565b60405180910390f35b3480156100e557600080fd5b5061010060048036038101906100fb91906126f0565b610425565b005b34801561010e57600080fd5b506101176106ff565b6040516101249190612730565b60405180910390f35b34801561013957600080fd5b50610154600480360381019061014f919061247b565b610705565b005b34801561016257600080fd5b5061016b610d41565b6040516101789190612730565b60405180910390f35b34801561018d57600080fd5b50610196610def565b6040516101a3919061276c565b60405180910390f35b3480156101b857600080fd5b506101d360048036038101906101ce91906127b3565b610e13565b6040516101e09190612730565b60405180910390f35b3480156101f557600080fd5b50610210600480360381019061020b919061247b565b610e2b565b60405161021d9190612730565b60405180910390f35b34801561023257600080fd5b5061024d6004803603810190610248919061294b565b610f22565b005b6102696004803603810190610264919061247b565b611436565b005b6001602052806000526040600020600091509050806000016040518060800160405290816000820160009054906101000a900473ffffffffffffffffffffffffffffffffffffffff1673ffffffffffffffffffffffffffffffffffffffff1673ffffffffffffffffffffffffffffffffffffffff168152602001600182015481526020016002820160009054906101000a900460ff16600381111561031357610312612502565b5b600381111561032557610324612502565b5b815260200160038201548152505090806004016040518060800160405290816000820160009054906101000a900473ffffffffffffffffffffffffffffffffffffffff1673ffffffffffffffffffffffffffffffffffffffff1673ffffffffffffffffffffffffffffffffffffffff168152602001600182015481526020016002820160009054906101000a900460ff1660038111156103c8576103c7612502565b5b60038111156103da576103d9612502565b5b81526020016003820154815250509080600801549080600901549080600a01549080600b0160009054906101000a900460ff169080600b0160019054906101000a900460ff16905087565b600060016000848152602001908152602001600020905080600b0160009054906101000a900460ff1661048d576040517f08c379a000000000000000000000000000000000000000000000000000000000815260040161048490612a17565b60405180910390fd5b600160028111156104a1576104a0612502565b5b81600b0160019054906101000a900460ff1660028111156104c5576104c4612502565b5b14610505576040517f08c379a00000000000000000000000000000000000000000000000000000000081526004016104fc90612a83565b60405180910390fd5b8060000160000160009054906101000a900473ffffffffffffffffffffffffffffffffffffffff1673ffffffffffffffffffffffffffffffffffffffff163373ffffffffffffffffffffffffffffffffffffffff1614806105b857508060040160000160009054906101000a900473ffffffffffffffffffffffffffffffffffffffff1673ffffffffffffffffffffffffffffffffffffffff163373ffffffffffffffffffffffffffffffffffffffff16145b6105f7576040517f08c379a00000000000000000000000000000000000000000000000000000000081526004016105ee90612b15565b60405180910390fd5b60008160000160000160009054906101000a900473ffffffffffffffffffffffffffffffffffffffff1673ffffffffffffffffffffffffffffffffffffffff163373ffffffffffffffffffffffffffffffffffffffff161461065c5781600401610661565b816000015b90506000801b8160010154146106ac576040517f08c379a00000000000000000000000000000000000000000000000000000000081526004016106a390612b81565b60405180910390fd5b8281600101819055503373ffffffffffffffffffffffffffffffffffffffff16847f6c58628e5bb60ea99b4f32f996f3b529a09be8f332da2e6f6cbd245af76e034760405160405180910390a350505050565b60025481565b60006001600083815260200190815260200160002090508060000160000160009054906101000a900473ffffffffffffffffffffffffffffffffffffffff1673ffffffffffffffffffffffffffffffffffffffff163373ffffffffffffffffffffffffffffffffffffffff1614806107cf57508060040160000160009054906101000a900473ffffffffffffffffffffffffffffffffffffffff1673ffffffffffffffffffffffffffffffffffffffff163373ffffffffffffffffffffffffffffffffffffffff16145b61080e576040517f08c379a000000000000000000000000000000000000000000000000000000000815260040161080590612bed565b60405180910390fd5b60008160000160000160009054906101000a900473ffffffffffffffffffffffffffffffffffffffff1673ffffffffffffffffffffffffffffffffffffffff163373ffffffffffffffffffffffffffffffffffffffff16036109c1576040518060800160405280600073ffffffffffffffffffffffffffffffffffffffff1681526020016000801b8152602001600060038111156108af576108ae612502565b5b815260200160008152508260000160008201518160000160006101000a81548173ffffffffffffffffffffffffffffffffffffffff021916908373ffffffffffffffffffffffffffffffffffffffff1602179055506020820151816001015560408201518160020160006101000a81548160ff0219169083600381111561093957610938612502565b5b021790555060608201518160030155905050816009015490508160000160000160009054906101000a900473ffffffffffffffffffffffffffffffffffffffff1673ffffffffffffffffffffffffffffffffffffffff166108fc829081150290604051600060405180830381858888f193505050501580156109bf573d6000803e3d6000fd5b505b8160040160000160009054906101000a900473ffffffffffffffffffffffffffffffffffffffff1673ffffffffffffffffffffffffffffffffffffffff163373ffffffffffffffffffffffffffffffffffffffff1603610b72576040518060800160405280600073ffffffffffffffffffffffffffffffffffffffff1681526020016000801b815260200160006003811115610a6057610a5f612502565b5b815260200160008152508260040160008201518160000160006101000a81548173ffffffffffffffffffffffffffffffffffffffff021916908373ffffffffffffffffffffffffffffffffffffffff1602179055506020820151816001015560408201518160020160006101000a81548160ff02191690836003811115610aea57610ae9612502565b5b021790555060608201518160030155905050816009015490508160040160000160009054906101000a900473ffffffffffffffffffffffffffffffffffffffff1673ffffffffffffffffffffffffffffffffffffffff166108fc829081150290604051600060405180830381858888f19350505050158015610b70573d6000803e3d6000fd5b505b80826008015410610b995780826008016000828254610b919190612c3c565b925050819055505b600073ffffffffffffffffffffffffffffffffffffffff168260000160000160009054906101000a900473ffffffffffffffffffffffffffffffffffffffff1673ffffffffffffffffffffffffffffffffffffffff16148015610c4f5750600073ffffffffffffffffffffffffffffffffffffffff168260040160000160009054906101000a900473ffffffffffffffffffffffffffffffffffffffff1673ffffffffffffffffffffffffffffffffffffffff16145b15610cb357600082600b0160016101000a81548160ff02191690836002811115610c7c57610c7b612502565b5b02179055506000826008018190555060008260090181905550600082600b0160006101000a81548160ff0219169083151502179055505b6000600360003373ffffffffffffffffffffffffffffffffffffffff1673ffffffffffffffffffffffffffffffffffffffff168152602001908152602001600020819055503373ffffffffffffffffffffffffffffffffffffffff16837fb2bd643202385c64d9814c6c3fa61b1ba098d6652292e9d9a6f1a0cdae6eb82460405160405180910390a3505050565b600060026000815480929190610d5690612c70565b91905055506000600160006002548152602001908152602001600020905060008160080181905550600081600b0160016101000a81548160ff02191690836002811115610da657610da5612502565b5b02179055506002547fa26856d25e558c79e1632806bc6824075cf59885a115825f2aab62385a3f71426000604051610dde9190612cfd565b60405180910390a260025491505090565b60008054906101000a900473ffffffffffffffffffffffffffffffffffffffff1681565b60036020528060005260406000206000915090505481565b60008060016000848152602001908152602001600020905060008073ffffffffffffffffffffffffffffffffffffffff168260000160000160009054906101000a900473ffffffffffffffffffffffffffffffffffffffff1673ffffffffffffffffffffffffffffffffffffffff1614610eae578080610eaa90612c70565b9150505b600073ffffffffffffffffffffffffffffffffffffffff168260040160000160009054906101000a900473ffffffffffffffffffffffffffffffffffffffff1673ffffffffffffffffffffffffffffffffffffffff1614610f18578080610f1490612c70565b9150505b8092505050919050565b600060016000858152602001908152602001600020905060016002811115610f4d57610f4c612502565b5b81600b0160019054906101000a900460ff166002811115610f7157610f70612502565b5b14610fb1576040517f08c379a0000000000000000000000000000000000000000000000000000000008152600401610fa890612d64565b60405180910390fd5b8060000160000160009054906101000a900473ffffffffffffffffffffffffffffffffffffffff1673ffffffffffffffffffffffffffffffffffffffff163373ffffffffffffffffffffffffffffffffffffffff16148061106457508060040160000160009054906101000a900473ffffffffffffffffffffffffffffffffffffffff1673ffffffffffffffffffffffffffffffffffffffff163373ffffffffffffffffffffffffffffffffffffffff16145b6110a3576040517f08c379a000000000000000000000000000000000000000000000000000000000815260040161109a90612df6565b60405180910390fd5b60008160000160000160009054906101000a900473ffffffffffffffffffffffffffffffffffffffff1673ffffffffffffffffffffffffffffffffffffffff163373ffffffffffffffffffffffffffffffffffffffff1614611108578160040161110d565b816000015b90506000600381111561112357611122612502565b5b8160020160009054906101000a900460ff16600381111561114757611146612502565b5b14611187576040517f08c379a000000000000000000000000000000000000000000000000000000000815260040161117e90612e62565b60405180910390fd5b6000848460405160200161119c929190612eff565b604051602081830303815290604052805190602001209050600a82600301546111c59190612f2f565b421180156111d957506000801b8260010154145b156112105760018260020160006101000a81548160ff0219169083600381111561120657611205612502565b5b0217905550611283565b81600101548114611256576040517f08c379a000000000000000000000000000000000000000000000000000000000815260040161124d90612faf565b60405180910390fd5b848260020160006101000a81548160ff0219169083600381111561127d5761127c612502565b5b02179055505b3373ffffffffffffffffffffffffffffffffffffffff16867fdd17665bf97c2a169e97f4f62f36023bf40807eb797a922864394a910d5c37c88460020160009054906101000a900460ff166040516112db9190612fcf565b60405180910390a3600060038111156112f7576112f6612502565b5b8360000160020160009054906101000a900460ff16600381111561131e5761131d612502565b5b1415801561136557506000600381111561133b5761133a612502565b5b8360040160020160009054906101000a900460ff16600381111561136257611361612502565b5b14155b156113745761137386611bc9565b5b7ff6ff2ad7fc16bda2a7d32462729431bce3ebe9b75cc7c9b35a0adfbf7e7bb9e68360000160020160009054906101000a900460ff1660038111156113bc576113bb612502565b5b6040516113c99190613036565b60405180910390a17ff6ff2ad7fc16bda2a7d32462729431bce3ebe9b75cc7c9b35a0adfbf7e7bb9e68360000160020160009054906101000a900460ff16600381111561141957611418612502565b5b6040516114269190613036565b60405180910390a1505050505050565b60008111611479576040517f08c379a0000000000000000000000000000000000000000000000000000000008152600401611470906130b0565b60405180910390fd5b6000600360003373ffffffffffffffffffffffffffffffffffffffff1673ffffffffffffffffffffffffffffffffffffffff16815260200190815260200160002054146114fb576040517f08c379a00000000000000000000000000000000000000000000000000000000081526004016114f29061311c565b60405180910390fd5b60028081111561150e5761150d612502565b5b60016000838152602001908152602001600020600b0160019054906101000a900460ff16600281111561154457611543612502565b5b0361164457600160008281526020019081526020016000206000808201600080820160006101000a81549073ffffffffffffffffffffffffffffffffffffffff021916905560018201600090556002820160006101000a81549060ff02191690556003820160009055505060048201600080820160006101000a81549073ffffffffffffffffffffffffffffffffffffffff021916905560018201600090556002820160006101000a81549060ff02191690556003820160009055505060088201600090556009820160009055600a820160009055600b820160006101000a81549060ff0219169055600b820160016101000a81549060ff021916905550505b60006001600083815260200190815260200160002090506000600281111561166f5761166e612502565b5b81600b0160019054906101000a900460ff16600281111561169357611692612502565b5b146116d3576040517f08c379a00000000000000000000000000000000000000000000000000000000081526004016116ca90613188565b60405180910390fd5b60003411611716576040517f08c379a000000000000000000000000000000000000000000000000000000000815260040161170d906131f4565b60405180910390fd5b600073ffffffffffffffffffffffffffffffffffffffff168160000160000160009054906101000a900473ffffffffffffffffffffffffffffffffffffffff1673ffffffffffffffffffffffffffffffffffffffff16036118795760405180608001604052803373ffffffffffffffffffffffffffffffffffffffff1681526020016000801b8152602001600060038111156117b5576117b4612502565b5b8152602001428152508160000160008201518160000160006101000a81548173ffffffffffffffffffffffffffffffffffffffff021916908373ffffffffffffffffffffffffffffffffffffffff1602179055506020820151816001015560408201518160020160006101000a81548160ff0219169083600381111561183e5761183d612502565b5b0217905550606082015181600301559050503481600901819055503481600801600082825461186d9190612f2f565b92505081905550611b3d565b600073ffffffffffffffffffffffffffffffffffffffff168160040160000160009054906101000a900473ffffffffffffffffffffffffffffffffffffffff1673ffffffffffffffffffffffffffffffffffffffff1603611b01578060000160000160009054906101000a900473ffffffffffffffffffffffffffffffffffffffff1673ffffffffffffffffffffffffffffffffffffffff163373ffffffffffffffffffffffffffffffffffffffff1603611969576040517f08c379a000000000000000000000000000000000000000000000000000000000815260040161196090613260565b60405180910390fd5b806009015434146119af576040517f08c379a00000000000000000000000000000000000000000000000000000000081526004016119a6906132cc565b60405180910390fd5b60405180608001604052803373ffffffffffffffffffffffffffffffffffffffff1681526020016000801b8152602001600060038111156119f3576119f2612502565b5b8152602001428152508160040160008201518160000160006101000a81548173ffffffffffffffffffffffffffffffffffffffff021916908373ffffffffffffffffffffffffffffffffffffffff1602179055506020820151816001015560408201518160020160006101000a81548160ff02191690836003811115611a7c57611a7b612502565b5b02179055506060820151816003015590505034816008016000828254611aa29190612f2f565b92505081905550600181600b0160016101000a81548160ff02191690836002811115611ad157611ad0612502565b5b0217905550600181600b0160006101000a81548160ff0219169083151502179055504281600a0181905550611b3c565b6040517f08c379a0000000000000000000000000000000000000000000000000000000008152600401611b3390613338565b60405180910390fd5b5b81600360003373ffffffffffffffffffffffffffffffffffffffff1673ffffffffffffffffffffffffffffffffffffffff168152602001908152602001600020819055503373ffffffffffffffffffffffffffffffffffffffff16827f87969bc7faf902221a147b95ceba76e011c5efb0339a0a8ee7a2bb82d9cfbbd660405160405180910390a35050565b600060016000838152602001908152602001600020905060006003811115611bf457611bf3612502565b5b8160000160020160009054906101000a900460ff166003811115611c1b57611c1a612502565b5b03611c5b576040517f08c379a0000000000000000000000000000000000000000000000000000000008152600401611c52906133a4565b60405180910390fd5b60006003811115611c6f57611c6e612502565b5b8160040160020160009054906101000a900460ff166003811115611c9657611c95612502565b5b03611cd6576040517f08c379a0000000000000000000000000000000000000000000000000000000008152600401611ccd90613410565b60405180910390fd5b60008160040160020160009054906101000a900460ff166003811115611cff57611cfe612502565b5b8260000160020160009054906101000a900460ff166003811115611d2657611d25612502565b5b03611e7f57600060028360080154611d3e919061345f565b90506000811115611e26578260000160000160009054906101000a900473ffffffffffffffffffffffffffffffffffffffff1673ffffffffffffffffffffffffffffffffffffffff166108fc829081150290604051600060405180830381858888f19350505050158015611db6573d6000803e3d6000fd5b508260040160000160009054906101000a900473ffffffffffffffffffffffffffffffffffffffff1673ffffffffffffffffffffffffffffffffffffffff166108fc829081150290604051600060405180830381858888f19350505050158015611e24573d6000803e3d6000fd5b505b8173ffffffffffffffffffffffffffffffffffffffff16847ff6ae188cc6336ef5ad970d3c81cda5814b4c4902540924c6924debe94ece13eb8560080154604051611e719190612730565b60405180910390a35061206b565b60016003811115611e9357611e92612502565b5b8260000160020160009054906101000a900460ff166003811115611eba57611eb9612502565b5b148015611efe5750600380811115611ed557611ed4612502565b5b8260040160020160009054906101000a900460ff166003811115611efc57611efb612502565b5b145b80611f845750600380811115611f1757611f16612502565b5b8260000160020160009054906101000a900460ff166003811115611f3e57611f3d612502565b5b148015611f83575060026003811115611f5a57611f59612502565b5b8260040160020160009054906101000a900460ff166003811115611f8157611f80612502565b5b145b5b8061200b575060026003811115611f9e57611f9d612502565b5b8260000160020160009054906101000a900460ff166003811115611fc557611fc4612502565b5b14801561200a575060016003811115611fe157611fe0612502565b5b8260040160020160009054906101000a900460ff16600381111561200857612007612502565b5b145b5b1561203f578160000160000160009054906101000a900473ffffffffffffffffffffffffffffffffffffffff16905061206a565b8160040160000160009054906101000a900473ffffffffffffffffffffffffffffffffffffffff1690505b5b600073ffffffffffffffffffffffffffffffffffffffff168173ffffffffffffffffffffffffffffffffffffffff16146120eb578073ffffffffffffffffffffffffffffffffffffffff166108fc83600801549081150290604051600060405180830381858888f193505050501580156120e9573d6000803e3d6000fd5b505b8073ffffffffffffffffffffffffffffffffffffffff16837ff6ae188cc6336ef5ad970d3c81cda5814b4c4902540924c6924debe94ece13eb84600801546040516121369190612730565b60405180910390a3600282600b0160016101000a81548160ff0219169083600281111561216657612165612502565b5b0217905550600082600b0160006101000a81548160ff021916908315150217905550600082600801819055506000600360008460000160000160009054906101000a900473ffffffffffffffffffffffffffffffffffffffff1673ffffffffffffffffffffffffffffffffffffffff1673ffffffffffffffffffffffffffffffffffffffff168152602001908152602001600020819055506000600360008460040160000160009054906101000a900473ffffffffffffffffffffffffffffffffffffffff1673ffffffffffffffffffffffffffffffffffffffff1673ffffffffffffffffffffffffffffffffffffffff168152602001908152602001600020819055506040518060800160405280600073ffffffffffffffffffffffffffffffffffffffff1681526020016000801b8152602001600060038111156122af576122ae612502565b5b815260200160008152508260000160008201518160000160006101000a81548173ffffffffffffffffffffffffffffffffffffffff021916908373ffffffffffffffffffffffffffffffffffffffff1602179055506020820151816001015560408201518160020160006101000a81548160ff0219169083600381111561233957612338612502565b5b0217905550606082015181600301559050506040518060800160405280600073ffffffffffffffffffffffffffffffffffffffff1681526020016000801b8152602001600060038111156123905761238f612502565b5b815260200160008152508260040160008201518160000160006101000a81548173ffffffffffffffffffffffffffffffffffffffff021916908373ffffffffffffffffffffffffffffffffffffffff1602179055506020820151816001015560408201518160020160006101000a81548160ff0219169083600381111561241a57612419612502565b5b021790555060608201518160030155905050505050565b6000604051905090565b600080fd5b600080fd5b6000819050919050565b61245881612445565b811461246357600080fd5b50565b6000813590506124758161244f565b92915050565b6000602082840312156124915761249061243b565b5b600061249f84828501612466565b91505092915050565b600073ffffffffffffffffffffffffffffffffffffffff82169050919050565b60006124d3826124a8565b9050919050565b6124e3816124c8565b82525050565b6000819050919050565b6124fc816124e9565b82525050565b7f4e487b7100000000000000000000000000000000000000000000000000000000600052602160045260246000fd5b6004811061254257612541612502565b5b50565b600081905061255382612531565b919050565b600061256382612545565b9050919050565b61257381612558565b82525050565b61258281612445565b82525050565b60808201600082015161259e60008501826124da565b5060208201516125b160208501826124f3565b5060408201516125c4604085018261256a565b5060608201516125d76060850182612579565b50505050565b6125e681612445565b82525050565b60008115159050919050565b612601816125ec565b82525050565b6003811061261857612617612502565b5b50565b600081905061262982612607565b919050565b60006126398261261b565b9050919050565b6126498161262e565b82525050565b60006101a082019050612665600083018a612588565b6126726080830189612588565b6126806101008301886125dd565b61268e6101208301876125dd565b61269c6101408301866125dd565b6126aa6101608301856125f8565b6126b8610180830184612640565b98975050505050505050565b6126cd816124e9565b81146126d857600080fd5b50565b6000813590506126ea816126c4565b92915050565b600080604083850312156127075761270661243b565b5b600061271585828601612466565b9250506020612726858286016126db565b9150509250929050565b600060208201905061274560008301846125dd565b92915050565b6000612756826124a8565b9050919050565b6127668161274b565b82525050565b6000602082019050612781600083018461275d565b92915050565b6127908161274b565b811461279b57600080fd5b50565b6000813590506127ad81612787565b92915050565b6000602082840312156127c9576127c861243b565b5b60006127d78482850161279e565b91505092915050565b600481106127ed57600080fd5b50565b6000813590506127ff816127e0565b92915050565b600080fd5b600080fd5b6000601f19601f8301169050919050565b7f4e487b7100000000000000000000000000000000000000000000000000000000600052604160045260246000fd5b6128588261280f565b810181811067ffffffffffffffff8211171561287757612876612820565b5b80604052505050565b600061288a612431565b9050612896828261284f565b919050565b600067ffffffffffffffff8211156128b6576128b5612820565b5b6128bf8261280f565b9050602081019050919050565b82818337600083830152505050565b60006128ee6128e98461289b565b612880565b90508281526020810184848401111561290a5761290961280a565b5b6129158482856128cc565b509392505050565b600082601f83011261293257612931612805565b5b81356129428482602086016128db565b91505092915050565b6000806000606084860312156129645761296361243b565b5b600061297286828701612466565b9350506020612983868287016127f0565b925050604084013567ffffffffffffffff8111156129a4576129a3612440565b5b6129b08682870161291d565b9150509250925092565b600082825260208201905092915050565b7f47616d65206973206e6f74206163746976650000000000000000000000000000600082015250565b6000612a016012836129ba565b9150612a0c826129cb565b602082019050919050565b60006020820190508181036000830152612a30816129f4565b9050919050565b7f47616d65206973206e6f7420616363657074696e67206d6f7665730000000000600082015250565b6000612a6d601b836129ba565b9150612a7882612a37565b602082019050919050565b60006020820190508181036000830152612a9c81612a60565b9050919050565b7f4f6e6c7920706c617965727320696e207468652067616d652063616e20636f6d60008201527f6d6974206d6f7665730000000000000000000000000000000000000000000000602082015250565b6000612aff6029836129ba565b9150612b0a82612aa3565b604082019050919050565b60006020820190508181036000830152612b2e81612af2565b9050919050565b7f4d6f766520616c726561647920636f6d6d697474656400000000000000000000600082015250565b6000612b6b6016836129ba565b9150612b7682612b35565b602082019050919050565b60006020820190508181036000830152612b9a81612b5e565b9050919050565b7f596f7520617265206e6f742070617274206f6620746869732067616d65000000600082015250565b6000612bd7601d836129ba565b9150612be282612ba1565b602082019050919050565b60006020820190508181036000830152612c0681612bca565b9050919050565b7f4e487b7100000000000000000000000000000000000000000000000000000000600052601160045260246000fd5b6000612c4782612445565b9150612c5283612445565b9250828203905081811115612c6a57612c69612c0d565b5b92915050565b6000612c7b82612445565b91507fffffffffffffffffffffffffffffffffffffffffffffffffffffffffffffffff8203612cad57612cac612c0d565b5b600182019050919050565b6000819050919050565b6000819050919050565b6000612ce7612ce2612cdd84612cb8565b612cc2565b612445565b9050919050565b612cf781612ccc565b82525050565b6000602082019050612d126000830184612cee565b92915050565b7f47616d65206973206e6f7420696e2072657665616c2070686173650000000000600082015250565b6000612d4e601b836129ba565b9150612d5982612d18565b602082019050919050565b60006020820190508181036000830152612d7d81612d41565b9050919050565b7f4f6e6c7920706c617965727320696e207468652067616d652063616e2072657660008201527f65616c206d6f7665730000000000000000000000000000000000000000000000602082015250565b6000612de06029836129ba565b9150612deb82612d84565b604082019050919050565b60006020820190508181036000830152612e0f81612dd3565b9050919050565b7f4d6f766520616c72656164792072657665616c65640000000000000000000000600082015250565b6000612e4c6015836129ba565b9150612e5782612e16565b602082019050919050565b60006020820190508181036000830152612e7b81612e3f565b9050919050565b612e8b81612558565b82525050565b600081519050919050565b60005b83811015612eba578082015181840152602081019050612e9f565b60008484015250505050565b6000612ed182612e91565b612edb81856129ba565b9350612eeb818560208601612e9c565b612ef48161280f565b840191505092915050565b6000604082019050612f146000830185612e82565b8181036020830152612f268184612ec6565b90509392505050565b6000612f3a82612445565b9150612f4583612445565b9250828201905080821115612f5d57612f5c612c0d565b5b92915050565b7f496e76616c6964206d6f7665206f722073656372657400000000000000000000600082015250565b6000612f996016836129ba565b9150612fa482612f63565b602082019050919050565b60006020820190508181036000830152612fc881612f8c565b9050919050565b6000602082019050612fe46000830184612e82565b92915050565b7f506c617965722031204d6f766500000000000000000000000000000000000000600082015250565b6000613020600d836129ba565b915061302b82612fea565b602082019050919050565b6000604082019050818103600083015261304f81613013565b905061305e60208301846125dd565b92915050565b7f496e76616c69642067616d654944000000000000000000000000000000000000600082015250565b600061309a600e836129ba565b91506130a582613064565b602082019050919050565b600060208201905081810360008301526130c98161308d565b9050919050565b7f596f752061726520616c726561647920696e20612067616d6521000000000000600082015250565b6000613106601a836129ba565b9150613111826130d0565b602082019050919050565b60006020820190508181036000830152613135816130f9565b9050919050565b7f47616d65206e6f74206a6f696e61626c65000000000000000000000000000000600082015250565b60006131726011836129ba565b915061317d8261313c565b602082019050919050565b600060208201905081810360008301526131a181613165565b9050919050565b7f4d7573742073656e642045544820746f206a6f696e0000000000000000000000600082015250565b60006131de6015836129ba565b91506131e9826131a8565b602082019050919050565b6000602082019050818103600083015261320d816131d1565b9050919050565b7f506c61796572312063616e6e6f74206a6f696e20616761696e00000000000000600082015250565b600061324a6019836129ba565b915061325582613214565b602082019050919050565b600060208201905081810360008301526132798161323d565b9050919050565b7f506c617965722032206d757374206d6174636820746865206265742100000000600082015250565b60006132b6601c836129ba565b91506132c182613280565b602082019050919050565b600060208201905081810360008301526132e5816132a9565b9050919050565b7f47616d6520616c7265616479206861732074776f20706c617965727300000000600082015250565b6000613322601c836129ba565b915061332d826132ec565b602082019050919050565b6000602082019050818103600083015261335181613315565b9050919050565b7f506c6179657231206d6f7665206e6f742072657665616c656400000000000000600082015250565b600061338e6019836129ba565b915061339982613358565b602082019050919050565b600060208201905081810360008301526133bd81613381565b9050919050565b7f506c6179657232206d6f7665206e6f742072657665616c656400000000000000600082015250565b60006133fa6019836129ba565b9150613405826133c4565b602082019050919050565b60006020820190508181036000830152613429816133ed565b9050919050565b7f4e487b7100000000000000000000000000000000000000000000000000000000600052601260045260246000fd5b600061346a82612445565b915061347583612445565b92508261348557613484613430565b5b82820490509291505056fea264697066735822122099d1135ec431c178e81423e86ca7bdc3f8247f076282e3caa1ba7ee3b4665a1364736f6c63430008140033",
  "linkReferences": {},
  "deployedLinkReferences": {}
}